{
  "contractName": "Toasts",
  "abi": [
    {
      "constant": true,
      "inputs": [
        {
          "name": "",
          "type": "uint256"
        }
      ],
      "name": "comments",
      "outputs": [
        {
          "name": "comment_id",
          "type": "uint256"
        },
        {
          "name": "author",
          "type": "address"
        },
        {
          "name": "article_url",
          "type": "bytes"
        },
        {
          "name": "article_id",
          "type": "uint256"
        },
        {
          "name": "comment",
          "type": "bytes"
        },
        {
          "name": "staked",
          "type": "uint256"
        },
        {
          "name": "is_good",
          "type": "bool"
        }
      ],
      "payable": false,
      "stateMutability": "view",
      "type": "function",
      "signature": "0x8ebb4c15"
    },
    {
      "constant": true,
      "inputs": [
        {
          "name": "",
          "type": "uint256"
        }
      ],
      "name": "articles",
      "outputs": [
        {
          "name": "staked",
          "type": "uint256"
        },
        {
          "name": "url",
          "type": "bytes"
        }
      ],
      "payable": false,
      "stateMutability": "view",
      "type": "function",
      "signature": "0xedcfafe6"
    },
    {
      "constant": false,
      "inputs": [
        {
          "name": "_name",
          "type": "bytes"
        },
        {
          "name": "_discription",
          "type": "bytes"
        }
      ],
      "name": "signUp",
      "outputs": [],
      "payable": false,
      "stateMutability": "nonpayable",
      "type": "function",
      "signature": "0x20c2175c"
    },
    {
      "constant": false,
      "inputs": [
        {
          "name": "commentid",
          "type": "uint256"
        }
      ],
      "name": "sendEther",
      "outputs": [],
      "payable": true,
      "stateMutability": "payable",
      "type": "function",
      "signature": "0xf88d331a"
    },
    {
      "constant": false,
      "inputs": [
        {
          "name": "url",
          "type": "bytes"
        },
        {
          "name": "comment",
          "type": "bytes"
        },
        {
          "name": "isgood",
          "type": "bool"
        },
        {
          "name": "tagsId",
          "type": "uint256[]"
        }
      ],
      "name": "toastComment",
      "outputs": [
        {
          "name": "",
          "type": "uint256"
        }
      ],
      "payable": false,
      "stateMutability": "nonpayable",
      "type": "function",
      "signature": "0x92b02a64"
    },
    {
      "constant": false,
      "inputs": [
        {
          "name": "tag",
          "type": "bytes"
        }
      ],
      "name": "addTag",
      "outputs": [],
      "payable": false,
      "stateMutability": "nonpayable",
      "type": "function",
      "signature": "0x0fd3b3b9"
    },
    {
      "constant": false,
      "inputs": [
        {
          "name": "url",
          "type": "bytes"
        },
        {
          "name": "jelly",
          "type": "uint256"
        }
      ],
      "name": "sendRequest",
      "outputs": [],
      "payable": false,
      "stateMutability": "nonpayable",
      "type": "function",
      "signature": "0xf6ba2f35"
    },
    {
      "constant": false,
      "inputs": [],
      "name": "withdraw",
      "outputs": [],
      "payable": false,
      "stateMutability": "nonpayable",
      "type": "function",
      "signature": "0x3ccfd60b"
    },
    {
      "constant": false,
      "inputs": [
        {
          "name": "to",
          "type": "address"
        }
      ],
      "name": "resetStake",
      "outputs": [],
      "payable": false,
      "stateMutability": "nonpayable",
      "type": "function",
      "signature": "0xf91aa242"
    },
    {
      "constant": true,
      "inputs": [
        {
          "name": "user",
          "type": "address"
        }
      ],
      "name": "getUserData",
      "outputs": [
        {
          "name": "",
          "type": "bytes"
        },
        {
          "name": "",
          "type": "bytes"
        },
        {
          "name": "",
          "type": "uint256"
        },
        {
          "name": "",
          "type": "uint256"
        }
      ],
      "payable": false,
      "stateMutability": "view",
      "type": "function",
      "signature": "0xffc9896b"
    },
    {
      "constant": true,
      "inputs": [
        {
          "name": "user",
          "type": "address"
        }
      ],
      "name": "getStakes",
      "outputs": [
        {
          "name": "",
          "type": "address[]"
        },
        {
          "name": "",
          "type": "uint256[]"
        }
      ],
      "payable": false,
      "stateMutability": "view",
      "type": "function",
      "signature": "0x7ba6f458"
    },
    {
      "constant": true,
      "inputs": [
        {
          "name": "user",
          "type": "address"
        }
      ],
      "name": "getStakeIndex",
      "outputs": [
        {
          "name": "",
          "type": "uint256"
        }
      ],
      "payable": false,
      "stateMutability": "view",
      "type": "function",
      "signature": "0x4ea4e6b8"
    },
    {
      "constant": true,
      "inputs": [
        {
          "name": "from",
          "type": "address"
        },
        {
          "name": "to",
          "type": "address"
        }
      ],
      "name": "getStakeAmount",
      "outputs": [
        {
          "name": "",
          "type": "uint256"
        }
      ],
      "payable": false,
      "stateMutability": "view",
      "type": "function",
      "signature": "0xe851b5fc"
    },
    {
      "constant": true,
      "inputs": [
        {
          "name": "commentid",
          "type": "uint256"
        }
      ],
      "name": "getComment",
      "outputs": [
        {
          "name": "",
          "type": "address"
        },
        {
          "name": "",
          "type": "bytes"
        },
        {
          "name": "",
          "type": "bytes"
        },
        {
          "name": "",
          "type": "uint256"
        },
        {
          "name": "",
          "type": "bool"
        },
        {
          "name": "",
          "type": "uint256"
        },
        {
          "name": "",
          "type": "uint256"
        }
      ],
      "payable": false,
      "stateMutability": "view",
      "type": "function",
      "signature": "0x0800e300"
    },
    {
      "constant": true,
      "inputs": [
        {
          "name": "user",
          "type": "address"
        }
      ],
      "name": "getUsersCommentsIndex",
      "outputs": [
        {
          "name": "",
          "type": "uint256[]"
        }
      ],
      "payable": false,
      "stateMutability": "view",
      "type": "function",
      "signature": "0xb9fd4fc8"
    },
    {
      "constant": true,
      "inputs": [
        {
          "name": "tag",
          "type": "bytes"
        }
      ],
      "name": "getCommentsFromTag",
      "outputs": [
        {
          "name": "",
          "type": "uint256[]"
        }
      ],
      "payable": false,
      "stateMutability": "view",
      "type": "function",
      "signature": "0xd7b50a63"
    },
    {
      "constant": true,
      "inputs": [],
      "name": "getTagCount",
      "outputs": [
        {
          "name": "",
          "type": "uint256"
        }
      ],
      "payable": false,
      "stateMutability": "view",
      "type": "function",
      "signature": "0x986f191c"
    },
    {
      "constant": true,
      "inputs": [
        {
          "name": "tagid",
          "type": "uint256"
        }
      ],
      "name": "getTag",
      "outputs": [
        {
          "name": "",
          "type": "bytes"
        }
      ],
      "payable": false,
      "stateMutability": "view",
      "type": "function",
      "signature": "0x691bbb69"
    },
    {
      "constant": true,
      "inputs": [
        {
          "name": "tag",
          "type": "bytes"
        }
      ],
      "name": "getTagId",
      "outputs": [
        {
          "name": "",
          "type": "uint256"
        }
      ],
      "payable": false,
      "stateMutability": "view",
      "type": "function",
      "signature": "0xcab2d5d4"
    },
    {
      "constant": true,
      "inputs": [
        {
          "name": "url",
          "type": "bytes"
        }
      ],
      "name": "getArtcileInfoFromUrl",
      "outputs": [
        {
          "name": "",
          "type": "uint256"
        },
        {
          "name": "",
          "type": "uint256[]"
        },
        {
          "name": "",
          "type": "uint256"
        }
      ],
      "payable": false,
      "stateMutability": "view",
      "type": "function",
      "signature": "0xaee7deb9"
    },
    {
      "constant": true,
      "inputs": [
        {
          "name": "id",
          "type": "uint256"
        }
      ],
      "name": "getArticleInfoFromId",
      "outputs": [
        {
          "name": "",
          "type": "bytes"
        },
        {
          "name": "",
          "type": "uint256[]"
        },
        {
          "name": "",
          "type": "uint256"
        }
      ],
      "payable": false,
      "stateMutability": "view",
      "type": "function",
      "signature": "0x98ffe817"
    },
    {
      "constant": true,
      "inputs": [],
      "name": "getRequestsJelly",
      "outputs": [
        {
          "name": "",
          "type": "uint256[]"
        }
      ],
      "payable": false,
      "stateMutability": "view",
      "type": "function",
      "signature": "0x5c54c954"
    },
    {
      "constant": true,
      "inputs": [
        {
          "name": "id",
          "type": "uint256"
        }
      ],
      "name": "getRequestUrl",
      "outputs": [
        {
          "name": "",
          "type": "bytes"
        }
      ],
      "payable": false,
      "stateMutability": "view",
      "type": "function",
      "signature": "0x8c9e1fd6"
    }
  ],
  "bytecode": "0x608060405234801561001057600080fd5b506138ad806100206000396000f3fe608060405260043610610133576000357c0100000000000000000000000000000000000000000000000000000000900463ffffffff1680630800e300146101385780630fd3b3b9146102ab57806320c2175c146103735780633ccfd60b146104d25780634ea4e6b8146104e95780635c54c9541461054e578063691bbb69146105ba5780637ba6f4581461066e5780638c9e1fd61461075c5780638ebb4c151461081057806392b02a6414610983578063986f191c14610b9657806398ffe81714610bc1578063aee7deb914610cc4578063b9fd4fc814610def578063cab2d5d414610e95578063d7b50a6314610f71578063e851b5fc1461108e578063edcfafe614611113578063f6ba2f35146111ce578063f88d331a146112a0578063f91aa242146112ce578063ffc9896b1461131f575b600080fd5b34801561014457600080fd5b506101716004803603602081101561015b57600080fd5b8101908080359060200190929190505050611463565b604051808873ffffffffffffffffffffffffffffffffffffffff1673ffffffffffffffffffffffffffffffffffffffff168152602001806020018060200187815260200186151515158152602001858152602001848152602001838103835289818151815260200191508051906020019080838360005b838110156102035780820151818401526020810190506101e8565b50505050905090810190601f1680156102305780820380516001836020036101000a031916815260200191505b50838103825288818151815260200191508051906020019080838360005b8381101561026957808201518184015260208101905061024e565b50505050905090810190601f1680156102965780820380516001836020036101000a031916815260200191505b50995050505050505050505060405180910390f35b3480156102b757600080fd5b50610371600480360360208110156102ce57600080fd5b81019080803590602001906401000000008111156102eb57600080fd5b8201836020820111156102fd57600080fd5b8035906020019184600183028401116401000000008311171561031f57600080fd5b91908080601f016020809104026020016040519081016040528093929190818152602001838380828437600081840152601f19601f820116905080830192505050505050509192919290505050611743565b005b34801561037f57600080fd5b506104d06004803603604081101561039657600080fd5b81019080803590602001906401000000008111156103b357600080fd5b8201836020820111156103c557600080fd5b803590602001918460018302840111640100000000831117156103e757600080fd5b91908080601f016020809104026020016040519081016040528093929190818152602001838380828437600081840152601f19601f8201169050808301925050505050505091929192908035906020019064010000000081111561044a57600080fd5b82018360208201111561045c57600080fd5b8035906020019184600183028401116401000000008311171561047e57600080fd5b91908080601f016020809104026020016040519081016040528093929190818152602001838380828437600081840152601f19601f8201169050808301925050505050505091929192905050506117fa565b005b3480156104de57600080fd5b506104e76118b1565b005b3480156104f557600080fd5b506105386004803603602081101561050c57600080fd5b81019080803573ffffffffffffffffffffffffffffffffffffffff169060200190929190505050611a00565b6040518082815260200191505060405180910390f35b34801561055a57600080fd5b50610563611a86565b6040518080602001828103825283818151815260200191508051906020019060200280838360005b838110156105a657808201518184015260208101905061058b565b505050509050019250505060405180910390f35b3480156105c657600080fd5b506105f3600480360360208110156105dd57600080fd5b8101908080359060200190929190505050611ade565b6040518080602001828103825283818151815260200191508051906020019080838360005b83811015610633578082015181840152602081019050610618565b50505050905090810190601f1680156106605780820380516001836020036101000a031916815260200191505b509250505060405180910390f35b34801561067a57600080fd5b506106bd6004803603602081101561069157600080fd5b81019080803573ffffffffffffffffffffffffffffffffffffffff169060200190929190505050611c26565b604051808060200180602001838103835285818151815260200191508051906020019060200280838360005b838110156107045780820151818401526020810190506106e9565b50505050905001838103825284818151815260200191508051906020019060200280838360005b8381101561074657808201518184015260208101905061072b565b5050505090500194505050505060405180910390f35b34801561076857600080fd5b506107956004803603602081101561077f57600080fd5b8101908080359060200190929190505050611d8a565b6040518080602001828103825283818151815260200191508051906020019080838360005b838110156107d55780820151818401526020810190506107ba565b50505050905090810190601f1680156108025780820380516001836020036101000a031916815260200191505b509250505060405180910390f35b34801561081c57600080fd5b506108496004803603602081101561083357600080fd5b8101908080359060200190929190505050611e45565b604051808881526020018773ffffffffffffffffffffffffffffffffffffffff1673ffffffffffffffffffffffffffffffffffffffff168152602001806020018681526020018060200185815260200184151515158152602001838103835288818151815260200191508051906020019080838360005b838110156108db5780820151818401526020810190506108c0565b50505050905090810190601f1680156109085780820380516001836020036101000a031916815260200191505b50838103825286818151815260200191508051906020019080838360005b83811015610941578082015181840152602081019050610926565b50505050905090810190601f16801561096e5780820380516001836020036101000a031916815260200191505b50995050505050505050505060405180910390f35b34801561098f57600080fd5b50610b80600480360360808110156109a657600080fd5b81019080803590602001906401000000008111156109c357600080fd5b8201836020820111156109d557600080fd5b803590602001918460018302840111640100000000831117156109f757600080fd5b91908080601f016020809104026020016040519081016040528093929190818152602001838380828437600081840152601f19601f82011690508083019250505050505050919291929080359060200190640100000000811115610a5a57600080fd5b820183602082011115610a6c57600080fd5b80359060200191846001830284011164010000000083111715610a8e57600080fd5b91908080601f016020809104026020016040519081016040528093929190818152602001838380828437600081840152601f19601f82011690508083019250505050505050919291929080351515906020019092919080359060200190640100000000811115610afd57600080fd5b820183602082011115610b0f57600080fd5b80359060200191846020830284011164010000000083111715610b3157600080fd5b919080806020026020016040519081016040528093929190818152602001838360200280828437600081840152601f19601f820116905080830192505050505050509192919290505050611ff3565b6040518082815260200191505060405180910390f35b348015610ba257600080fd5b50610bab6124c9565b6040518082815260200191505060405180910390f35b348015610bcd57600080fd5b50610bfa60048036036020811015610be457600080fd5b81019080803590602001909291905050506124d6565b604051808060200180602001848152602001838103835286818151815260200191508051906020019080838360005b83811015610c44578082015181840152602081019050610c29565b50505050905090810190601f168015610c715780820380516001836020036101000a031916815260200191505b50838103825285818151815260200191508051906020019060200280838360005b83811015610cad578082015181840152602081019050610c92565b505050509050019550505050505060405180910390f35b348015610cd057600080fd5b50610d8a60048036036020811015610ce757600080fd5b8101908080359060200190640100000000811115610d0457600080fd5b820183602082011115610d1657600080fd5b80359060200191846001830284011164010000000083111715610d3857600080fd5b91908080601f016020809104026020016040519081016040528093929190818152602001838380828437600081840152601f19601f8201169050808301925050505050505091929192905050506126c8565b6040518084815260200180602001838152602001828103825284818151815260200191508051906020019060200280838360005b83811015610dd9578082015181840152602081019050610dbe565b5050505090500194505050505060405180910390f35b348015610dfb57600080fd5b50610e3e60048036036020811015610e1257600080fd5b81019080803573ffffffffffffffffffffffffffffffffffffffff16906020019092919050505061281d565b6040518080602001828103825283818151815260200191508051906020019060200280838360005b83811015610e81578082015181840152602081019050610e66565b505050509050019250505060405180910390f35b348015610ea157600080fd5b50610f5b60048036036020811015610eb857600080fd5b8101908080359060200190640100000000811115610ed557600080fd5b820183602082011115610ee757600080fd5b80359060200191846001830284011164010000000083111715610f0957600080fd5b91908080601f016020809104026020016040519081016040528093929190818152602001838380828437600081840152601f19601f8201169050808301925050505050505091929192905050506128b4565b6040518082815260200191505060405180910390f35b348015610f7d57600080fd5b5061103760048036036020811015610f9457600080fd5b8101908080359060200190640100000000811115610fb157600080fd5b820183602082011115610fc357600080fd5b80359060200191846001830284011164010000000083111715610fe557600080fd5b91908080601f016020809104026020016040519081016040528093929190818152602001838380828437600081840152601f19601f820116905080830192505050505050509192919290505050612929565b6040518080602001828103825283818151815260200191508051906020019060200280838360005b8381101561107a57808201518184015260208101905061105f565b505050509050019250505060405180910390f35b34801561109a57600080fd5b506110fd600480360360408110156110b157600080fd5b81019080803573ffffffffffffffffffffffffffffffffffffffff169060200190929190803573ffffffffffffffffffffffffffffffffffffffff1690602001909291905050506129ec565b6040518082815260200191505060405180910390f35b34801561111f57600080fd5b5061114c6004803603602081101561113657600080fd5b8101908080359060200190929190505050612ae5565b6040518083815260200180602001828103825283818151815260200191508051906020019080838360005b83811015611192578082015181840152602081019050611177565b50505050905090810190601f1680156111bf5780820380516001836020036101000a031916815260200191505b50935050505060405180910390f35b3480156111da57600080fd5b5061129e600480360360408110156111f157600080fd5b810190808035906020019064010000000081111561120e57600080fd5b82018360208201111561122057600080fd5b8035906020019184600183028401116401000000008311171561124257600080fd5b91908080601f016020809104026020016040519081016040528093929190818152602001838380828437600081840152601f19601f82011690508083019250505050505050919291929080359060200190929190505050612bb0565b005b6112cc600480360360208110156112b657600080fd5b8101908080359060200190929190505050612e45565b005b3480156112da57600080fd5b5061131d600480360360208110156112f157600080fd5b81019080803573ffffffffffffffffffffffffffffffffffffffff16906020019092919050505061335f565b005b34801561132b57600080fd5b5061136e6004803603602081101561134257600080fd5b81019080803573ffffffffffffffffffffffffffffffffffffffff1690602001909291905050506134bc565b604051808060200180602001858152602001848152602001838103835287818151815260200191508051906020019080838360005b838110156113be5780820151818401526020810190506113a3565b50505050905090810190601f1680156113eb5780820380516001836020036101000a031916815260200191505b50838103825286818151815260200191508051906020019080838360005b83811015611424578082015181840152602081019050611409565b50505050905090810190601f1680156114515780820380516001836020036101000a031916815260200191505b50965050505050505060405180910390f35b600060608060008060008060008811801561148357506004805490508811155b15156114f7576040517f08c379a00000000000000000000000000000000000000000000000000000000081526004018080602001828103825260148152602001807f636f6d6d656e74696420697320696e76616c696400000000000000000000000081525060200191505060405180910390fd5b600060018903905060048181548110151561150e57fe5b906000526020600020906007020160010160009054906101000a900473ffffffffffffffffffffffffffffffffffffffff1660048281548110151561154f57fe5b906000526020600020906007020160020160048381548110151561156f57fe5b906000526020600020906007020160040160048481548110151561158f57fe5b9060005260206000209060070201600501546004858154811015156115b057fe5b906000526020600020906007020160060160009054906101000a900460ff168d6004878154811015156115df57fe5b906000526020600020906007020160030154858054600181600116156101000203166002900480601f0160208091040260200160405190810160405280929190818152602001828054600181600116156101000203166002900480156116865780601f1061165b57610100808354040283529160200191611686565b820191906000526020600020905b81548152906001019060200180831161166957829003601f168201915b50505050509550848054600181600116156101000203166002900480601f0160208091040260200160405190810160405280929190818152602001828054600181600116156101000203166002900480156117225780601f106116f757610100808354040283529160200191611722565b820191906000526020600020905b81548152906001019060200180831161170557829003601f168201915b50505050509450975097509750975097509750975050919395979092949650565b600781908060018154018082558091505090600182039060005260206000200160009091929091909150908051906020019061178092919061370f565b50506007805490506008826040518082805190602001908083835b6020831015156117c0578051825260208201915060208101905060208303925061179b565b6001836020036101000a03801982511681845116808217855250505050505090500191505090815260200160405180910390208190555050565b6080604051908101604052808381526020018281526020016000815260200160008152506000803373ffffffffffffffffffffffffffffffffffffffff1673ffffffffffffffffffffffffffffffffffffffff168152602001908152602001600020600082015181600001908051906020019061187892919061378f565b50602082015181600101908051906020019061189592919061378f565b5060408201518160020155606082015181600301559050505050565b60008060003373ffffffffffffffffffffffffffffffffffffffff1673ffffffffffffffffffffffffffffffffffffffff16815260200190815260200160002060020154905060008111151561196f576040517f08c379a000000000000000000000000000000000000000000000000000000000815260040180806020018281038252601a8152602001807f796f75722062616c616e6365206973206e6f7420656e6f75676800000000000081525060200191505060405180910390fd5b60008060003373ffffffffffffffffffffffffffffffffffffffff1673ffffffffffffffffffffffffffffffffffffffff168152602001908152602001600020600201819055503373ffffffffffffffffffffffffffffffffffffffff166108fc829081150290604051600060405180830381858888f193505050501580156119fc573d6000803e3d6000fd5b5050565b6000600160003373ffffffffffffffffffffffffffffffffffffffff1673ffffffffffffffffffffffffffffffffffffffff16815260200190815260200160002060008373ffffffffffffffffffffffffffffffffffffffff1673ffffffffffffffffffffffffffffffffffffffff168152602001908152602001600020549050919050565b6060600d805480602002602001604051908101604052809291908181526020018280548015611ad457602002820191906000526020600020905b815481526020019060010190808311611ac0575b5050505050905090565b606060018210158015611af657506007805490508211155b1515611b6a576040517f08c379a00000000000000000000000000000000000000000000000000000000081526004018080602001828103825260108152602001807f746167696420697320696e76616c69640000000000000000000000000000000081525060200191505060405180910390fd5b600760018303815481101515611b7c57fe5b906000526020600020018054600181600116156101000203166002900480601f016020809104026020016040519081016040528092919081815260200182805460018160011615610100020316600290048015611c1a5780601f10611bef57610100808354040283529160200191611c1a565b820191906000526020600020905b815481529060010190602001808311611bfd57829003601f168201915b50505050509050919050565b606080600260008473ffffffffffffffffffffffffffffffffffffffff1673ffffffffffffffffffffffffffffffffffffffff168152602001908152602001600020600360008573ffffffffffffffffffffffffffffffffffffffff1673ffffffffffffffffffffffffffffffffffffffff16815260200190815260200160002081805480602002602001604051908101604052809291908181526020018280548015611d2857602002820191906000526020600020905b8160009054906101000a900473ffffffffffffffffffffffffffffffffffffffff1673ffffffffffffffffffffffffffffffffffffffff1681526020019060010190808311611cde575b5050505050915080805480602002602001604051908101604052809291908181526020018280548015611d7a57602002820191906000526020600020905b815481526020019060010190808311611d66575b5050505050905091509150915091565b6060600c82815481101515611d9b57fe5b906000526020600020018054600181600116156101000203166002900480601f016020809104026020016040519081016040528092919081815260200182805460018160011615610100020316600290048015611e395780601f10611e0e57610100808354040283529160200191611e39565b820191906000526020600020905b815481529060010190602001808311611e1c57829003601f168201915b50505050509050919050565b600481815481101515611e5457fe5b90600052602060002090600702016000915090508060000154908060010160009054906101000a900473ffffffffffffffffffffffffffffffffffffffff1690806002018054600181600116156101000203166002900480601f016020809104026020016040519081016040528092919081815260200182805460018160011615610100020316600290048015611f2c5780601f10611f0157610100808354040283529160200191611f2c565b820191906000526020600020905b815481529060010190602001808311611f0f57829003601f168201915b505050505090806003015490806004018054600181600116156101000203166002900480601f016020809104026020016040519081016040528092919081815260200182805460018160011615610100020316600290048015611fd05780601f10611fa557610100808354040283529160200191611fd0565b820191906000526020600020905b815481529060010190602001808311611fb357829003601f168201915b5050505050908060050154908060060160009054906101000a900460ff16905087565b600080858051906020012090506000600a600083815260200190815260200160002054905060008111151561213b57600160098054905001600a600084815260200190815260200160002081905550600160098054905001905060606009606060405190810160405280838152602001600081526020018a8152509080600181540180825580915050906001820390600052602060002090600302016000909192909190915060008201518160000190805190602001906120b592919061380f565b506020820151816001015560408201518160020190805190602001906120dc92919061378f565b505050506009600183038154811015156120f257fe5b90600052602060002090600302016000016001600480549050019080600181540180825580915050906001820390600052602060002001600090919290919091505550506121c9565b60096001820381548110151561214d57fe5b90600052602060002090600302016000016001600480549050019080600181540180825580915050906001820390600052602060002001600090919290919091505550866009600183038154811015156121a357fe5b906000526020600020906003020160020190805190602001906121c792919061370f565b505b600560003373ffffffffffffffffffffffffffffffffffffffff1673ffffffffffffffffffffffffffffffffffffffff1681526020019081526020016000206001600480549050019080600181540180825580915050906001820390600052602060002001600090919290919091505550600460e06040519081016040528060016004805490500181526020013373ffffffffffffffffffffffffffffffffffffffff16815260200189815260200183815260200188815260200160008152602001871515815250908060018154018082558091505090600182039060005260206000209060070201600090919290919091506000820151816000015560208201518160010160006101000a81548173ffffffffffffffffffffffffffffffffffffffff021916908373ffffffffffffffffffffffffffffffffffffffff160217905550604082015181600201908051906020019061232992919061378f565b5060608201518160030155608082015181600401908051906020019061235092919061378f565b5060a0820151816005015560c08201518160060160006101000a81548160ff02191690831515021790555050505060008090505b84518110156124b65760078054905085828151811015156123a157fe5b90602001906020020151111580156123d15750600085828151811015156123c457fe5b9060200190602002015114155b156124a95760066007600187848151811015156123ea57fe5b906020019060200201510381548110151561240157fe5b9060005260206000200160405180828054600181600116156101000203166002900480156124665780601f10612444576101008083540402835291820191612466565b820191906000526020600020905b815481529060010190602001808311612452575b5050915050908152602001604051809103902060048054905090806001815401808255809150509060018203906000526020600020016000909192909190915055505b8080600101915050612384565b5060048054905092505050949350505050565b6000600780549050905090565b606080600080841180156124ef57506009805490508411155b1515612563576040517f08c379a000000000000000000000000000000000000000000000000000000000815260040180806020018281038252600d8152602001807f696420697320696e76616c69640000000000000000000000000000000000000081525060200191505060405180910390fd5b60096001850381548110151561257557fe5b906000526020600020906003020160020160096001860381548110151561259857fe5b90600052602060002090600302016000016009600187038154811015156125bb57fe5b906000526020600020906003020160010154828054600181600116156101000203166002900480601f0160208091040260200160405190810160405280929190818152602001828054600181600116156101000203166002900480156126625780601f1061263757610100808354040283529160200191612662565b820191906000526020600020905b81548152906001019060200180831161264557829003601f168201915b50505050509250818054806020026020016040519081016040528092919081815260200182805480156126b457602002820191906000526020600020905b8154815260200190600101908083116126a0575b505050505091509250925092509193909250565b60006060600080600a60008680519060200120815260200190815260200160002054905060008111801561270157506009805490508111155b1515612775576040517f08c379a000000000000000000000000000000000000000000000000000000000815260040180806020018281038252600d8152602001807f696420697320696e76616c69640000000000000000000000000000000000000081525060200191505060405180910390fd5b8060096001830381548110151561278857fe5b90600052602060002090600302016000016009600184038154811015156127ab57fe5b9060005260206000209060030201600101548180548060200260200160405190810160405280929190818152602001828054801561280857602002820191906000526020600020905b8154815260200190600101908083116127f4575b50505050509150935093509350509193909250565b6060600560008373ffffffffffffffffffffffffffffffffffffffff1673ffffffffffffffffffffffffffffffffffffffff1681526020019081526020016000208054806020026020016040519081016040528092919081815260200182805480156128a857602002820191906000526020600020905b815481526020019060010190808311612894575b50505050509050919050565b60006008826040518082805190602001908083835b6020831015156128ee57805182526020820191506020810190506020830392506128c9565b6001836020036101000a0380198251168184511680821785525050505050509050019150509081526020016040518091039020549050919050565b60606006826040518082805190602001908083835b602083101515612963578051825260208201915060208101905060208303925061293e565b6001836020036101000a03801982511681845116808217855250505050505090500191505090815260200160405180910390208054806020026020016040519081016040528092919081815260200182805480156129e057602002820191906000526020600020905b8154815260200190600101908083116129cc575b50505050509050919050565b600080600160008573ffffffffffffffffffffffffffffffffffffffff1673ffffffffffffffffffffffffffffffffffffffff16815260200190815260200160002060008473ffffffffffffffffffffffffffffffffffffffff1673ffffffffffffffffffffffffffffffffffffffff1681526020019081526020016000205490506000811115612ad957600360008573ffffffffffffffffffffffffffffffffffffffff1673ffffffffffffffffffffffffffffffffffffffff16815260200190815260200160002060018203815481101515612ac657fe5b9060005260206000200154915050612adf565b60009150505b92915050565b600981815481101515612af457fe5b9060005260206000209060030201600091509050806001015490806002018054600181600116156101000203166002900480601f016020809104026020016040519081016040528092919081815260200182805460018160011615610100020316600290048015612ba65780601f10612b7b57610100808354040283529160200191612ba6565b820191906000526020600020905b815481529060010190602001808311612b8957829003601f168201915b5050505050905082565b806000803373ffffffffffffffffffffffffffffffffffffffff1673ffffffffffffffffffffffffffffffffffffffff16815260200190815260200160002060030154111515612c68576040517f08c379a00000000000000000000000000000000000000000000000000000000081526004018080602001828103825260108152602001807f6e6f7420656e6f756768206a656c6c790000000000000000000000000000000081525060200191505060405180910390fd5b806000803373ffffffffffffffffffffffffffffffffffffffff1673ffffffffffffffffffffffffffffffffffffffff168152602001908152602001600020600301600082825403925050819055506000600b836040518082805190602001908083835b602083101515612cf15780518252602082019150602081019050602083039250612ccc565b6001836020036101000a03801982511681845116808217855250505050505090500191505090815260200160405180910390205490506000811115612d5f5781600d60018303815481101515612d4357fe5b9060005260206000200160008282540192505081905550612e40565b600c839080600181540180825580915050906001820390600052602060002001600090919290919091509080519060200190612d9c92919061370f565b5050600d829080600181540180825580915050906001820390600052602060002001600090919290919091505550600c80549050600b846040518082805190602001908083835b602083101515612e085780518252602082019150602081019050602083039250612de3565b6001836020036101000a0380198251168184511680821785525050505050509050019150509081526020016040518091039020819055505b505050565b6004805490508111158015612e5a5750600081115b1515612ece576040517f08c379a000000000000000000000000000000000000000000000000000000000815260040180806020018281038252600d8152602001807f696420697320696e76616c69640000000000000000000000000000000000000081525060200191505060405180910390fd5b6000600460018303815481101515612ee257fe5b906000526020600020906007020160010160009054906101000a900473ffffffffffffffffffffffffffffffffffffffff169050346000808373ffffffffffffffffffffffffffffffffffffffff1673ffffffffffffffffffffffffffffffffffffffff168152602001908152602001600020600201600082825401925050819055506000600160003373ffffffffffffffffffffffffffffffffffffffff1673ffffffffffffffffffffffffffffffffffffffff16815260200190815260200160002060008373ffffffffffffffffffffffffffffffffffffffff1673ffffffffffffffffffffffffffffffffffffffff16815260200190815260200160002054905060008114156131c6576001600260003373ffffffffffffffffffffffffffffffffffffffff1673ffffffffffffffffffffffffffffffffffffffff1681526020019081526020016000208054905001600160003373ffffffffffffffffffffffffffffffffffffffff1673ffffffffffffffffffffffffffffffffffffffff16815260200190815260200160002060008473ffffffffffffffffffffffffffffffffffffffff1673ffffffffffffffffffffffffffffffffffffffff16815260200190815260200160002081905550600260003373ffffffffffffffffffffffffffffffffffffffff1673ffffffffffffffffffffffffffffffffffffffff1681526020019081526020016000208290806001815401808255809150509060018203906000526020600020016000909192909190916101000a81548173ffffffffffffffffffffffffffffffffffffffff021916908373ffffffffffffffffffffffffffffffffffffffff16021790555050600360003373ffffffffffffffffffffffffffffffffffffffff1673ffffffffffffffffffffffffffffffffffffffff168152602001908152602001600020349080600181540180825580915050906001820390600052602060002001600090919290919091505550613286565b6000600360003373ffffffffffffffffffffffffffffffffffffffff1673ffffffffffffffffffffffffffffffffffffffff1681526020019081526020016000206001830381548110151561321757fe5b90600052602060002001549050348101600360003373ffffffffffffffffffffffffffffffffffffffff1673ffffffffffffffffffffffffffffffffffffffff1681526020019081526020016000206001840381548110151561327657fe5b9060005260206000200181905550505b346000803373ffffffffffffffffffffffffffffffffffffffff1673ffffffffffffffffffffffffffffffffffffffff16815260200190815260200160002060030160008282540192505081905550346004600185038154811015156132e857fe5b906000526020600020906007020160050160008282540192505081905550346009600160046001870381548110151561331d57fe5b9060005260206000209060070201600301540381548110151561333c57fe5b906000526020600020906003020160010160008282540192505081905550505050565b6000600160003373ffffffffffffffffffffffffffffffffffffffff1673ffffffffffffffffffffffffffffffffffffffff16815260200190815260200160002060008373ffffffffffffffffffffffffffffffffffffffff1673ffffffffffffffffffffffffffffffffffffffff16815260200190815260200160002054905060008114151515613459576040517f08c379a00000000000000000000000000000000000000000000000000000000081526004018080602001828103825260128152602001807f63616e6e6e6f742066696e64207374616b65000000000000000000000000000081525060200191505060405180910390fd5b6000600360003373ffffffffffffffffffffffffffffffffffffffff1673ffffffffffffffffffffffffffffffffffffffff168152602001908152602001600020600183038154811015156134aa57fe5b90600052602060002001819055505050565b6060806000806000808673ffffffffffffffffffffffffffffffffffffffff1673ffffffffffffffffffffffffffffffffffffffff1681526020019081526020016000206000016000808773ffffffffffffffffffffffffffffffffffffffff1673ffffffffffffffffffffffffffffffffffffffff1681526020019081526020016000206001016000808873ffffffffffffffffffffffffffffffffffffffff1673ffffffffffffffffffffffffffffffffffffffff168152602001908152602001600020600201546000808973ffffffffffffffffffffffffffffffffffffffff1673ffffffffffffffffffffffffffffffffffffffff16815260200190815260200160002060030154838054600181600116156101000203166002900480601f01602080910402602001604051908101604052809291908181526020018280546001816001161561010002031660029004801561365d5780601f106136325761010080835404028352916020019161365d565b820191906000526020600020905b81548152906001019060200180831161364057829003601f168201915b50505050509350828054600181600116156101000203166002900480601f0160208091040260200160405190810160405280929190818152602001828054600181600116156101000203166002900480156136f95780601f106136ce576101008083540402835291602001916136f9565b820191906000526020600020905b8154815290600101906020018083116136dc57829003601f168201915b5050505050925093509350935093509193509193565b828054600181600116156101000203166002900490600052602060002090601f016020900481019282601f1061375057805160ff191683800117855561377e565b8280016001018555821561377e579182015b8281111561377d578251825591602001919060010190613762565b5b50905061378b919061385c565b5090565b828054600181600116156101000203166002900490600052602060002090601f016020900481019282601f106137d057805160ff19168380011785556137fe565b828001600101855582156137fe579182015b828111156137fd5782518255916020019190600101906137e2565b5b50905061380b919061385c565b5090565b82805482825590600052602060002090810192821561384b579160200282015b8281111561384a57825182559160200191906001019061382f565b5b509050613858919061385c565b5090565b61387e91905b8082111561387a576000816000905550600101613862565b5090565b9056fea165627a7a72305820079c214db53557cedaeb584b1800b3283614fb682f1fd8b7cfd7328b7f0973400029",
  "source": "pragma solidity ^0.5.0;\n\ncontract Toasts {\n\n  struct UserData {\n    bytes name;\n    bytes discription;\n    uint balance;\n    uint jelly;\n  }\n\n  struct Comment {\n    uint comment_id;\n    address author;\n    bytes article_url;\n    uint article_id;\n    bytes comment;\n    uint staked;\n    bool is_good;\n  }\n\n  struct Article{\n    uint[] comments;\n    uint staked;\n    bytes url;\n  }\n\n  mapping(address => UserData) usersData;\n\n  mapping(address => mapping(address => uint)) addressToStakeIndex;\n  mapping(address => address[]) stake_for;\n  mapping(address => uint[]) stake_amount;\n\n\n  Comment[] public comments;\n  mapping( address => uint[]) addressToComments;\n\n  mapping( bytes => uint[]) tagToComments;\n  bytes[] tags;\n  mapping( bytes => uint ) tagToTagid;\n\n\n  Article[] public articles;\n  mapping( bytes32 => uint ) urlToArticleId;\n\n  mapping( bytes => uint ) urlToRequestId;\n  bytes[] requestsUrl;\n  uint[] jellyAmount;\n\n  function signUp(bytes memory _name,bytes memory _discription) public {\n    usersData[msg.sender] = UserData(_name,_discription,0,0);\n  }\n\n  function sendEther(uint commentid) public payable {\n\n    require(commentid <= comments.length && commentid > 0,\"id is invalid\");\n\n    address to = comments[commentid-1].author;\n    usersData[to].balance += msg.value;\n    uint index = addressToStakeIndex[msg.sender][to];\n    if (index==0){\n      addressToStakeIndex[msg.sender][to] = stake_for[msg.sender].length+1;\n      stake_for[msg.sender].push(to);\n      stake_amount[msg.sender].push(msg.value);\n    } else{\n      uint val = stake_amount[msg.sender][index-1];\n      stake_amount[msg.sender][index-1] = val + msg.value;\n    }\n    usersData[msg.sender].jelly += msg.value;\n    comments[commentid-1].staked += msg.value;\n    articles[comments[commentid-1].article_id-1].staked += msg.value;\n  }\n\n  function toastComment(bytes memory url,bytes memory comment,bool isgood,uint[] memory tagsId) public returns(uint) {\n    bytes32 urlhash = keccak256(url);\n    uint articleId = urlToArticleId[urlhash];\n    if (articleId<=0){\n      urlToArticleId[urlhash] = articles.length+1;\n      articleId = articles.length+1;\n      uint[] memory coms;\n      articles.push(Article(coms,0,url));\n      articles[articleId-1].comments.push(comments.length+1);\n    } else {\n      articles[articleId-1].comments.push(comments.length+1);\n      articles[articleId-1].url = url;\n    }\n\n    addressToComments[msg.sender].push(comments.length+1);\n    comments.push(Comment(comments.length+1,msg.sender,url,articleId,comment,0,isgood));\n    for( uint i = 0; i < tagsId.length; i++ ){\n      if (tagsId[i]<=tags.length && tagsId[i] != 0){\n        tagToComments[tags[tagsId[i]-1]].push(comments.length);\n      }\n    }\n    return comments.length;\n  }\n\n  function addTag(bytes memory tag) public {\n    tags.push(tag);\n    tagToTagid[tag] = tags.length;\n  }\n\n  function sendRequest(bytes memory url,uint jelly) public {\n    require(usersData[msg.sender].jelly>jelly,\"not enough jelly\");\n    usersData[msg.sender].jelly -= jelly;\n    uint id = urlToRequestId[url];\n    if (id>0){\n      jellyAmount[id-1] += jelly;\n    } else {\n      requestsUrl.push(url);\n      jellyAmount.push(jelly);\n      urlToRequestId[url] = requestsUrl.length;\n    }\n  }\n\n  function withdraw() public {\n    uint balance = usersData[msg.sender].balance;\n    require (balance > 0,\"your balance is not enough\");\n    usersData[msg.sender].balance = 0;\n    msg.sender.transfer(balance);\n  }\n\n  function resetStake(address to) public {\n    uint index = addressToStakeIndex[msg.sender][to];\n    require(index!=0,\"cannnot find stake\");\n    stake_amount[msg.sender][index-1] = 0;\n  }\n\n  function getUserData(address user) public view returns (bytes memory,bytes memory,uint,uint) {\n    return (usersData[user].name,usersData[user].discription,usersData[user].balance,usersData[user].jelly);\n  }\n\n  function getStakes(address user) public view returns (address[] memory,uint[] memory) {\n    return (stake_for[user],stake_amount[user]);\n  }\n\n  function getStakeIndex(address user) public view returns (uint) {\n    return (addressToStakeIndex[msg.sender][user]);\n  }\n\n  function getStakeAmount(address from,address to) public view returns (uint) {\n    uint index = addressToStakeIndex[from][to];\n    if (index>0){\n      return stake_amount[from][index-1];\n    }\n    else{\n      return 0;\n    }\n  }\n\n  function getComment(uint commentid) public view returns (address, bytes memory, bytes memory, uint, bool, uint, uint) {\n    require(commentid>0 && commentid <= comments.length,\"commentid is invalid\");\n    uint index = commentid - 1;\n    return (comments[index].author,comments[index].article_url,comments[index].comment,\n          comments[index].staked,comments[index].is_good,commentid,comments[index].article_id);\n  }\n\n  function getUsersCommentsIndex(address user) public view returns (uint[] memory) {\n    return addressToComments[user];\n  }\n\n  function getCommentsFromTag(bytes memory tag) public view returns (uint[] memory) {\n    return tagToComments[tag];\n  }\n\n  function getTagCount() public view returns (uint){\n    return tags.length;\n  }\n\n  function getTag(uint tagid) public view returns (bytes memory){\n    require(tagid>=1&&tagid<=tags.length,\"tagid is invalid\");\n    return tags[tagid-1];\n  }\n\n  function getTagId(bytes memory tag) public view returns (uint) {\n    return tagToTagid[tag];\n  }\n\n  function getArtcileInfoFromUrl(bytes memory url) public view returns (uint,uint[] memory,uint){\n    uint id = urlToArticleId[keccak256(url)];\n    require(id>0&&id<=articles.length,\"id is invalid\");\n    return (id,articles[id-1].comments,articles[id-1].staked);\n  }\n\n  function getArticleInfoFromId(uint id) public view returns (bytes memory,uint[] memory,uint){\n    require(id>0&&id<=articles.length,\"id is invalid\");\n    return (articles[id-1].url,articles[id-1].comments,articles[id-1].staked);\n  }\n\n  function getRequestsJelly() public view returns (uint[] memory){\n    return jellyAmount;\n  }\n\n  function getRequestUrl(uint id) public view returns (bytes memory){\n    return requestsUrl[id];\n  }\n\n}\n",
  "sourcePath": "/Users/kajiwarawataruju/Develop/toast/truffle/contracts/Toasts.sol",
  "compiler": {
    "name": "solc",
    "version": "0.5.0+commit.1d4f565a.Emscripten.clang"
  },
  "schemaVersion": "3.0.1",
  "updatedAt": "2019-11-22T13:06:26.127Z",
  "devdoc": {
    "methods": {}
  },
  "userdoc": {
    "methods": {}
  }
}