{
  "contractName": "Toasts",
  "abi": [
    {
      "constant": true,
      "inputs": [
        {
          "name": "",
          "type": "uint256"
        }
      ],
      "name": "comments",
      "outputs": [
        {
          "name": "comment_id",
          "type": "uint256"
        },
        {
          "name": "author",
          "type": "address"
        },
        {
          "name": "article_url",
          "type": "bytes"
        },
        {
          "name": "article_id",
          "type": "uint256"
        },
        {
          "name": "comment",
          "type": "bytes"
        },
        {
          "name": "staked",
          "type": "uint256"
        },
        {
          "name": "is_good",
          "type": "bool"
        }
      ],
      "payable": false,
      "stateMutability": "view",
      "type": "function",
      "signature": "0x8ebb4c15"
    },
    {
      "constant": true,
      "inputs": [
        {
          "name": "",
          "type": "uint256"
        }
      ],
      "name": "articles",
      "outputs": [
        {
          "name": "staked",
          "type": "uint256"
        },
        {
          "name": "url",
          "type": "bytes"
        }
      ],
      "payable": false,
      "stateMutability": "view",
      "type": "function",
      "signature": "0xedcfafe6"
    },
    {
      "constant": false,
      "inputs": [
        {
          "name": "_name",
          "type": "bytes"
        },
        {
          "name": "_discription",
          "type": "bytes"
        }
      ],
      "name": "signUp",
      "outputs": [],
      "payable": false,
      "stateMutability": "nonpayable",
      "type": "function",
      "signature": "0x20c2175c"
    },
    {
      "constant": false,
      "inputs": [
        {
          "name": "commentid",
          "type": "uint256"
        }
      ],
      "name": "sendEther",
      "outputs": [],
      "payable": true,
      "stateMutability": "payable",
      "type": "function",
      "signature": "0xf88d331a"
    },
    {
      "constant": false,
      "inputs": [
        {
          "name": "url",
          "type": "bytes"
        },
        {
          "name": "comment",
          "type": "bytes"
        },
        {
          "name": "isgood",
          "type": "bool"
        },
        {
          "name": "tagsId",
          "type": "uint256[]"
        }
      ],
      "name": "toastComment",
      "outputs": [
        {
          "name": "",
          "type": "uint256"
        }
      ],
      "payable": false,
      "stateMutability": "nonpayable",
      "type": "function",
      "signature": "0x92b02a64"
    },
    {
      "constant": false,
      "inputs": [
        {
          "name": "tag",
          "type": "bytes"
        }
      ],
      "name": "addTag",
      "outputs": [],
      "payable": false,
      "stateMutability": "nonpayable",
      "type": "function",
      "signature": "0x0fd3b3b9"
    },
    {
      "constant": false,
      "inputs": [],
      "name": "withdraw",
      "outputs": [],
      "payable": false,
      "stateMutability": "nonpayable",
      "type": "function",
      "signature": "0x3ccfd60b"
    },
    {
      "constant": true,
      "inputs": [
        {
          "name": "user",
          "type": "address"
        }
      ],
      "name": "getUserData",
      "outputs": [
        {
          "name": "",
          "type": "bytes"
        },
        {
          "name": "",
          "type": "bytes"
        },
        {
          "name": "",
          "type": "uint256"
        }
      ],
      "payable": false,
      "stateMutability": "view",
      "type": "function",
      "signature": "0xffc9896b"
    },
    {
      "constant": true,
      "inputs": [
        {
          "name": "user",
          "type": "address"
        }
      ],
      "name": "getStakes",
      "outputs": [
        {
          "name": "",
          "type": "address[]"
        },
        {
          "name": "",
          "type": "uint256[]"
        }
      ],
      "payable": false,
      "stateMutability": "view",
      "type": "function",
      "signature": "0x7ba6f458"
    },
    {
      "constant": true,
      "inputs": [
        {
          "name": "user",
          "type": "address"
        }
      ],
      "name": "getStakeIndex",
      "outputs": [
        {
          "name": "",
          "type": "uint256"
        }
      ],
      "payable": false,
      "stateMutability": "view",
      "type": "function",
      "signature": "0x4ea4e6b8"
    },
    {
      "constant": true,
      "inputs": [
        {
          "name": "commentid",
          "type": "uint256"
        }
      ],
      "name": "getComment",
      "outputs": [
        {
          "name": "",
          "type": "address"
        },
        {
          "name": "",
          "type": "bytes"
        },
        {
          "name": "",
          "type": "bytes"
        },
        {
          "name": "",
          "type": "uint256"
        },
        {
          "name": "",
          "type": "bool"
        },
        {
          "name": "",
          "type": "uint256"
        },
        {
          "name": "",
          "type": "uint256"
        }
      ],
      "payable": false,
      "stateMutability": "view",
      "type": "function",
      "signature": "0x0800e300"
    },
    {
      "constant": true,
      "inputs": [
        {
          "name": "user",
          "type": "address"
        }
      ],
      "name": "getUsersCommentsIndex",
      "outputs": [
        {
          "name": "",
          "type": "uint256[]"
        }
      ],
      "payable": false,
      "stateMutability": "view",
      "type": "function",
      "signature": "0xb9fd4fc8"
    },
    {
      "constant": true,
      "inputs": [
        {
          "name": "tag",
          "type": "bytes"
        }
      ],
      "name": "getCommentsFromTag",
      "outputs": [
        {
          "name": "",
          "type": "uint256[]"
        }
      ],
      "payable": false,
      "stateMutability": "view",
      "type": "function",
      "signature": "0xd7b50a63"
    },
    {
      "constant": true,
      "inputs": [],
      "name": "getTagCount",
      "outputs": [
        {
          "name": "",
          "type": "uint256"
        }
      ],
      "payable": false,
      "stateMutability": "view",
      "type": "function",
      "signature": "0x986f191c"
    },
    {
      "constant": true,
      "inputs": [
        {
          "name": "tagid",
          "type": "uint256"
        }
      ],
      "name": "getTag",
      "outputs": [
        {
          "name": "",
          "type": "bytes"
        }
      ],
      "payable": false,
      "stateMutability": "view",
      "type": "function",
      "signature": "0x691bbb69"
    },
    {
      "constant": true,
      "inputs": [
        {
          "name": "tag",
          "type": "bytes"
        }
      ],
      "name": "getTagId",
      "outputs": [
        {
          "name": "",
          "type": "uint256"
        }
      ],
      "payable": false,
      "stateMutability": "view",
      "type": "function",
      "signature": "0xcab2d5d4"
    },
    {
      "constant": true,
      "inputs": [
        {
          "name": "url",
          "type": "bytes"
        }
      ],
      "name": "getArtcileInfoFromUrl",
      "outputs": [
        {
          "name": "",
          "type": "uint256"
        },
        {
          "name": "",
          "type": "uint256[]"
        },
        {
          "name": "",
          "type": "uint256"
        }
      ],
      "payable": false,
      "stateMutability": "view",
      "type": "function",
      "signature": "0xaee7deb9"
    },
    {
      "constant": true,
      "inputs": [
        {
          "name": "id",
          "type": "uint256"
        }
      ],
      "name": "getArticleInfoFromId",
      "outputs": [
        {
          "name": "",
          "type": "bytes"
        },
        {
          "name": "",
          "type": "uint256[]"
        },
        {
          "name": "",
          "type": "uint256"
        }
      ],
      "payable": false,
      "stateMutability": "view",
      "type": "function",
      "signature": "0x98ffe817"
    }
  ],
  "bytecode": "0x608060405234801561001057600080fd5b50612f04806100206000396000f3fe6080604052600436106100fc576000357c0100000000000000000000000000000000000000000000000000000000900463ffffffff1680630800e300146101015780630fd3b3b91461027457806320c2175c1461033c5780633ccfd60b1461049b5780634ea4e6b8146104b2578063691bbb69146105175780637ba6f458146105cb5780638ebb4c15146106b957806392b02a641461082c578063986f191c14610a3f57806398ffe81714610a6a578063aee7deb914610b6d578063b9fd4fc814610c98578063cab2d5d414610d3e578063d7b50a6314610e1a578063edcfafe614610f37578063f88d331a14610ff2578063ffc9896b14611020575b600080fd5b34801561010d57600080fd5b5061013a6004803603602081101561012457600080fd5b810190808035906020019092919050505061115d565b604051808873ffffffffffffffffffffffffffffffffffffffff1673ffffffffffffffffffffffffffffffffffffffff168152602001806020018060200187815260200186151515158152602001858152602001848152602001838103835289818151815260200191508051906020019080838360005b838110156101cc5780820151818401526020810190506101b1565b50505050905090810190601f1680156101f95780820380516001836020036101000a031916815260200191505b50838103825288818151815260200191508051906020019080838360005b83811015610232578082015181840152602081019050610217565b50505050905090810190601f16801561025f5780820380516001836020036101000a031916815260200191505b50995050505050505050505060405180910390f35b34801561028057600080fd5b5061033a6004803603602081101561029757600080fd5b81019080803590602001906401000000008111156102b457600080fd5b8201836020820111156102c657600080fd5b803590602001918460018302840111640100000000831117156102e857600080fd5b91908080601f016020809104026020016040519081016040528093929190818152602001838380828437600081840152601f19601f82011690508083019250505050505050919291929050505061143d565b005b34801561034857600080fd5b506104996004803603604081101561035f57600080fd5b810190808035906020019064010000000081111561037c57600080fd5b82018360208201111561038e57600080fd5b803590602001918460018302840111640100000000831117156103b057600080fd5b91908080601f016020809104026020016040519081016040528093929190818152602001838380828437600081840152601f19601f8201169050808301925050505050505091929192908035906020019064010000000081111561041357600080fd5b82018360208201111561042557600080fd5b8035906020019184600183028401116401000000008311171561044757600080fd5b91908080601f016020809104026020016040519081016040528093929190818152602001838380828437600081840152601f19601f8201169050808301925050505050505091929192905050506114f4565b005b3480156104a757600080fd5b506104b061159a565b005b3480156104be57600080fd5b50610501600480360360208110156104d557600080fd5b81019080803573ffffffffffffffffffffffffffffffffffffffff1690602001909291905050506116e9565b6040518082815260200191505060405180910390f35b34801561052357600080fd5b506105506004803603602081101561053a57600080fd5b810190808035906020019092919050505061176f565b6040518080602001828103825283818151815260200191508051906020019080838360005b83811015610590578082015181840152602081019050610575565b50505050905090810190601f1680156105bd5780820380516001836020036101000a031916815260200191505b509250505060405180910390f35b3480156105d757600080fd5b5061061a600480360360208110156105ee57600080fd5b81019080803573ffffffffffffffffffffffffffffffffffffffff1690602001909291905050506118b7565b604051808060200180602001838103835285818151815260200191508051906020019060200280838360005b83811015610661578082015181840152602081019050610646565b50505050905001838103825284818151815260200191508051906020019060200280838360005b838110156106a3578082015181840152602081019050610688565b5050505090500194505050505060405180910390f35b3480156106c557600080fd5b506106f2600480360360208110156106dc57600080fd5b8101908080359060200190929190505050611a1b565b604051808881526020018773ffffffffffffffffffffffffffffffffffffffff1673ffffffffffffffffffffffffffffffffffffffff168152602001806020018681526020018060200185815260200184151515158152602001838103835288818151815260200191508051906020019080838360005b83811015610784578082015181840152602081019050610769565b50505050905090810190601f1680156107b15780820380516001836020036101000a031916815260200191505b50838103825286818151815260200191508051906020019080838360005b838110156107ea5780820151818401526020810190506107cf565b50505050905090810190601f1680156108175780820380516001836020036101000a031916815260200191505b50995050505050505050505060405180910390f35b34801561083857600080fd5b50610a296004803603608081101561084f57600080fd5b810190808035906020019064010000000081111561086c57600080fd5b82018360208201111561087e57600080fd5b803590602001918460018302840111640100000000831117156108a057600080fd5b91908080601f016020809104026020016040519081016040528093929190818152602001838380828437600081840152601f19601f8201169050808301925050505050505091929192908035906020019064010000000081111561090357600080fd5b82018360208201111561091557600080fd5b8035906020019184600183028401116401000000008311171561093757600080fd5b91908080601f016020809104026020016040519081016040528093929190818152602001838380828437600081840152601f19601f820116905080830192505050505050509192919290803515159060200190929190803590602001906401000000008111156109a657600080fd5b8201836020820111156109b857600080fd5b803590602001918460208302840111640100000000831117156109da57600080fd5b919080806020026020016040519081016040528093929190818152602001838360200280828437600081840152601f19601f820116905080830192505050505050509192919290505050611bc9565b6040518082815260200191505060405180910390f35b348015610a4b57600080fd5b50610a5461209f565b6040518082815260200191505060405180910390f35b348015610a7657600080fd5b50610aa360048036036020811015610a8d57600080fd5b81019080803590602001909291905050506120ac565b604051808060200180602001848152602001838103835286818151815260200191508051906020019080838360005b83811015610aed578082015181840152602081019050610ad2565b50505050905090810190601f168015610b1a5780820380516001836020036101000a031916815260200191505b50838103825285818151815260200191508051906020019060200280838360005b83811015610b56578082015181840152602081019050610b3b565b505050509050019550505050505060405180910390f35b348015610b7957600080fd5b50610c3360048036036020811015610b9057600080fd5b8101908080359060200190640100000000811115610bad57600080fd5b820183602082011115610bbf57600080fd5b80359060200191846001830284011164010000000083111715610be157600080fd5b91908080601f016020809104026020016040519081016040528093929190818152602001838380828437600081840152601f19601f82011690508083019250505050505050919291929050505061229e565b6040518084815260200180602001838152602001828103825284818151815260200191508051906020019060200280838360005b83811015610c82578082015181840152602081019050610c67565b5050505090500194505050505060405180910390f35b348015610ca457600080fd5b50610ce760048036036020811015610cbb57600080fd5b81019080803573ffffffffffffffffffffffffffffffffffffffff1690602001909291905050506123f3565b6040518080602001828103825283818151815260200191508051906020019060200280838360005b83811015610d2a578082015181840152602081019050610d0f565b505050509050019250505060405180910390f35b348015610d4a57600080fd5b50610e0460048036036020811015610d6157600080fd5b8101908080359060200190640100000000811115610d7e57600080fd5b820183602082011115610d9057600080fd5b80359060200191846001830284011164010000000083111715610db257600080fd5b91908080601f016020809104026020016040519081016040528093929190818152602001838380828437600081840152601f19601f82011690508083019250505050505050919291929050505061248a565b6040518082815260200191505060405180910390f35b348015610e2657600080fd5b50610ee060048036036020811015610e3d57600080fd5b8101908080359060200190640100000000811115610e5a57600080fd5b820183602082011115610e6c57600080fd5b80359060200191846001830284011164010000000083111715610e8e57600080fd5b91908080601f016020809104026020016040519081016040528093929190818152602001838380828437600081840152601f19601f8201169050808301925050505050505091929192905050506124ff565b6040518080602001828103825283818151815260200191508051906020019060200280838360005b83811015610f23578082015181840152602081019050610f08565b505050509050019250505060405180910390f35b348015610f4357600080fd5b50610f7060048036036020811015610f5a57600080fd5b81019080803590602001909291905050506125c2565b6040518083815260200180602001828103825283818151815260200191508051906020019080838360005b83811015610fb6578082015181840152602081019050610f9b565b50505050905090810190601f168015610fe35780820380516001836020036101000a031916815260200191505b50935050505060405180910390f35b61101e6004803603602081101561100857600080fd5b810190808035906020019092919050505061268d565b005b34801561102c57600080fd5b5061106f6004803603602081101561104357600080fd5b81019080803573ffffffffffffffffffffffffffffffffffffffff169060200190929190505050612b58565b604051808060200180602001848152602001838103835286818151815260200191508051906020019080838360005b838110156110b957808201518184015260208101905061109e565b50505050905090810190601f1680156110e65780820380516001836020036101000a031916815260200191505b50838103825285818151815260200191508051906020019080838360005b8381101561111f578082015181840152602081019050611104565b50505050905090810190601f16801561114c5780820380516001836020036101000a031916815260200191505b509550505050505060405180910390f35b600060608060008060008060008811801561117d57506004805490508811155b15156111f1576040517f08c379a00000000000000000000000000000000000000000000000000000000081526004018080602001828103825260148152602001807f636f6d6d656e74696420697320696e76616c696400000000000000000000000081525060200191505060405180910390fd5b600060018903905060048181548110151561120857fe5b906000526020600020906007020160010160009054906101000a900473ffffffffffffffffffffffffffffffffffffffff1660048281548110151561124957fe5b906000526020600020906007020160020160048381548110151561126957fe5b906000526020600020906007020160040160048481548110151561128957fe5b9060005260206000209060070201600501546004858154811015156112aa57fe5b906000526020600020906007020160060160009054906101000a900460ff168d6004878154811015156112d957fe5b906000526020600020906007020160030154858054600181600116156101000203166002900480601f0160208091040260200160405190810160405280929190818152602001828054600181600116156101000203166002900480156113805780601f1061135557610100808354040283529160200191611380565b820191906000526020600020905b81548152906001019060200180831161136357829003601f168201915b50505050509550848054600181600116156101000203166002900480601f01602080910402602001604051908101604052809291908181526020018280546001816001161561010002031660029004801561141c5780601f106113f15761010080835404028352916020019161141c565b820191906000526020600020905b8154815290600101906020018083116113ff57829003601f168201915b50505050509450975097509750975097509750975050919395979092949650565b600781908060018154018082558091505090600182039060005260206000200160009091929091909150908051906020019061147a929190612d66565b50506007805490506008826040518082805190602001908083835b6020831015156114ba5780518252602082019150602081019050602083039250611495565b6001836020036101000a03801982511681845116808217855250505050505090500191505090815260200160405180910390208190555050565b60606040519081016040528083815260200182815260200160008152506000803373ffffffffffffffffffffffffffffffffffffffff1673ffffffffffffffffffffffffffffffffffffffff168152602001908152602001600020600082015181600001908051906020019061156b929190612de6565b506020820151816001019080519060200190611588929190612de6565b50604082015181600201559050505050565b60008060003373ffffffffffffffffffffffffffffffffffffffff1673ffffffffffffffffffffffffffffffffffffffff168152602001908152602001600020600201549050600081111515611658576040517f08c379a000000000000000000000000000000000000000000000000000000000815260040180806020018281038252601a8152602001807f796f75722062616c616e6365206973206e6f7420656e6f75676800000000000081525060200191505060405180910390fd5b60008060003373ffffffffffffffffffffffffffffffffffffffff1673ffffffffffffffffffffffffffffffffffffffff168152602001908152602001600020600201819055503373ffffffffffffffffffffffffffffffffffffffff166108fc829081150290604051600060405180830381858888f193505050501580156116e5573d6000803e3d6000fd5b5050565b6000600160003373ffffffffffffffffffffffffffffffffffffffff1673ffffffffffffffffffffffffffffffffffffffff16815260200190815260200160002060008373ffffffffffffffffffffffffffffffffffffffff1673ffffffffffffffffffffffffffffffffffffffff168152602001908152602001600020549050919050565b60606001821015801561178757506007805490508211155b15156117fb576040517f08c379a00000000000000000000000000000000000000000000000000000000081526004018080602001828103825260108152602001807f746167696420697320696e76616c69640000000000000000000000000000000081525060200191505060405180910390fd5b60076001830381548110151561180d57fe5b906000526020600020018054600181600116156101000203166002900480601f0160208091040260200160405190810160405280929190818152602001828054600181600116156101000203166002900480156118ab5780601f10611880576101008083540402835291602001916118ab565b820191906000526020600020905b81548152906001019060200180831161188e57829003601f168201915b50505050509050919050565b606080600260008473ffffffffffffffffffffffffffffffffffffffff1673ffffffffffffffffffffffffffffffffffffffff168152602001908152602001600020600360008573ffffffffffffffffffffffffffffffffffffffff1673ffffffffffffffffffffffffffffffffffffffff168152602001908152602001600020818054806020026020016040519081016040528092919081815260200182805480156119b957602002820191906000526020600020905b8160009054906101000a900473ffffffffffffffffffffffffffffffffffffffff1673ffffffffffffffffffffffffffffffffffffffff168152602001906001019080831161196f575b5050505050915080805480602002602001604051908101604052809291908181526020018280548015611a0b57602002820191906000526020600020905b8154815260200190600101908083116119f7575b5050505050905091509150915091565b600481815481101515611a2a57fe5b90600052602060002090600702016000915090508060000154908060010160009054906101000a900473ffffffffffffffffffffffffffffffffffffffff1690806002018054600181600116156101000203166002900480601f016020809104026020016040519081016040528092919081815260200182805460018160011615610100020316600290048015611b025780601f10611ad757610100808354040283529160200191611b02565b820191906000526020600020905b815481529060010190602001808311611ae557829003601f168201915b505050505090806003015490806004018054600181600116156101000203166002900480601f016020809104026020016040519081016040528092919081815260200182805460018160011615610100020316600290048015611ba65780601f10611b7b57610100808354040283529160200191611ba6565b820191906000526020600020905b815481529060010190602001808311611b8957829003601f168201915b5050505050908060050154908060060160009054906101000a900460ff16905087565b600080858051906020012090506000600a6000838152602001908152602001600020549050600081111515611d1157600160098054905001600a600084815260200190815260200160002081905550600160098054905001905060606009606060405190810160405280838152602001600081526020018a815250908060018154018082558091505090600182039060005260206000209060030201600090919290919091506000820151816000019080519060200190611c8b929190612e66565b50602082015181600101556040820151816002019080519060200190611cb2929190612de6565b50505050600960018303815481101515611cc857fe5b9060005260206000209060030201600001600160048054905001908060018154018082558091505090600182039060005260206000200160009091929091909150555050611d9f565b600960018203815481101515611d2357fe5b9060005260206000209060030201600001600160048054905001908060018154018082558091505090600182039060005260206000200160009091929091909150555086600960018303815481101515611d7957fe5b90600052602060002090600302016002019080519060200190611d9d929190612d66565b505b600560003373ffffffffffffffffffffffffffffffffffffffff1673ffffffffffffffffffffffffffffffffffffffff1681526020019081526020016000206001600480549050019080600181540180825580915050906001820390600052602060002001600090919290919091505550600460e06040519081016040528060016004805490500181526020013373ffffffffffffffffffffffffffffffffffffffff16815260200189815260200183815260200188815260200160008152602001871515815250908060018154018082558091505090600182039060005260206000209060070201600090919290919091506000820151816000015560208201518160010160006101000a81548173ffffffffffffffffffffffffffffffffffffffff021916908373ffffffffffffffffffffffffffffffffffffffff1602179055506040820151816002019080519060200190611eff929190612de6565b50606082015181600301556080820151816004019080519060200190611f26929190612de6565b5060a0820151816005015560c08201518160060160006101000a81548160ff02191690831515021790555050505060008090505b845181101561208c576007805490508582815181101515611f7757fe5b9060200190602002015111158015611fa7575060008582815181101515611f9a57fe5b9060200190602002015114155b1561207f576006600760018784815181101515611fc057fe5b9060200190602002015103815481101515611fd757fe5b90600052602060002001604051808280546001816001161561010002031660029004801561203c5780601f1061201a57610100808354040283529182019161203c565b820191906000526020600020905b815481529060010190602001808311612028575b5050915050908152602001604051809103902060048054905090806001815401808255809150509060018203906000526020600020016000909192909190915055505b8080600101915050611f5a565b5060048054905092505050949350505050565b6000600780549050905090565b606080600080841180156120c557506009805490508411155b1515612139576040517f08c379a000000000000000000000000000000000000000000000000000000000815260040180806020018281038252600d8152602001807f696420697320696e76616c69640000000000000000000000000000000000000081525060200191505060405180910390fd5b60096001850381548110151561214b57fe5b906000526020600020906003020160020160096001860381548110151561216e57fe5b906000526020600020906003020160000160096001870381548110151561219157fe5b906000526020600020906003020160010154828054600181600116156101000203166002900480601f0160208091040260200160405190810160405280929190818152602001828054600181600116156101000203166002900480156122385780601f1061220d57610100808354040283529160200191612238565b820191906000526020600020905b81548152906001019060200180831161221b57829003601f168201915b505050505092508180548060200260200160405190810160405280929190818152602001828054801561228a57602002820191906000526020600020905b815481526020019060010190808311612276575b505050505091509250925092509193909250565b60006060600080600a6000868051906020012081526020019081526020016000205490506000811180156122d757506009805490508111155b151561234b576040517f08c379a000000000000000000000000000000000000000000000000000000000815260040180806020018281038252600d8152602001807f696420697320696e76616c69640000000000000000000000000000000000000081525060200191505060405180910390fd5b8060096001830381548110151561235e57fe5b906000526020600020906003020160000160096001840381548110151561238157fe5b906000526020600020906003020160010154818054806020026020016040519081016040528092919081815260200182805480156123de57602002820191906000526020600020905b8154815260200190600101908083116123ca575b50505050509150935093509350509193909250565b6060600560008373ffffffffffffffffffffffffffffffffffffffff1673ffffffffffffffffffffffffffffffffffffffff16815260200190815260200160002080548060200260200160405190810160405280929190818152602001828054801561247e57602002820191906000526020600020905b81548152602001906001019080831161246a575b50505050509050919050565b60006008826040518082805190602001908083835b6020831015156124c4578051825260208201915060208101905060208303925061249f565b6001836020036101000a0380198251168184511680821785525050505050509050019150509081526020016040518091039020549050919050565b60606006826040518082805190602001908083835b6020831015156125395780518252602082019150602081019050602083039250612514565b6001836020036101000a03801982511681845116808217855250505050505090500191505090815260200160405180910390208054806020026020016040519081016040528092919081815260200182805480156125b657602002820191906000526020600020905b8154815260200190600101908083116125a2575b50505050509050919050565b6009818154811015156125d157fe5b9060005260206000209060030201600091509050806001015490806002018054600181600116156101000203166002900480601f0160208091040260200160405190810160405280929190818152602001828054600181600116156101000203166002900480156126835780601f1061265857610100808354040283529160200191612683565b820191906000526020600020905b81548152906001019060200180831161266657829003601f168201915b5050505050905082565b60048054905081111580156126a25750600081115b1515612716576040517f08c379a000000000000000000000000000000000000000000000000000000000815260040180806020018281038252600d8152602001807f696420697320696e76616c69640000000000000000000000000000000000000081525060200191505060405180910390fd5b600060046001830381548110151561272a57fe5b906000526020600020906007020160010160009054906101000a900473ffffffffffffffffffffffffffffffffffffffff169050346000808373ffffffffffffffffffffffffffffffffffffffff1673ffffffffffffffffffffffffffffffffffffffff168152602001908152602001600020600201600082825401925050819055506000600160003373ffffffffffffffffffffffffffffffffffffffff1673ffffffffffffffffffffffffffffffffffffffff16815260200190815260200160002060008373ffffffffffffffffffffffffffffffffffffffff1673ffffffffffffffffffffffffffffffffffffffff1681526020019081526020016000205490506000811415612a0e576001600260003373ffffffffffffffffffffffffffffffffffffffff1673ffffffffffffffffffffffffffffffffffffffff1681526020019081526020016000208054905001600160003373ffffffffffffffffffffffffffffffffffffffff1673ffffffffffffffffffffffffffffffffffffffff16815260200190815260200160002060008473ffffffffffffffffffffffffffffffffffffffff1673ffffffffffffffffffffffffffffffffffffffff16815260200190815260200160002081905550600260003373ffffffffffffffffffffffffffffffffffffffff1673ffffffffffffffffffffffffffffffffffffffff1681526020019081526020016000208290806001815401808255809150509060018203906000526020600020016000909192909190916101000a81548173ffffffffffffffffffffffffffffffffffffffff021916908373ffffffffffffffffffffffffffffffffffffffff16021790555050600360003373ffffffffffffffffffffffffffffffffffffffff1673ffffffffffffffffffffffffffffffffffffffff168152602001908152602001600020349080600181540180825580915050906001820390600052602060002001600090919290919091505550612ace565b6000600360003373ffffffffffffffffffffffffffffffffffffffff1673ffffffffffffffffffffffffffffffffffffffff16815260200190815260200160002060018303815481101515612a5f57fe5b90600052602060002001549050348101600360003373ffffffffffffffffffffffffffffffffffffffff1673ffffffffffffffffffffffffffffffffffffffff16815260200190815260200160002060018403815481101515612abe57fe5b9060005260206000200181905550505b34600460018503815481101515612ae157fe5b9060005260206000209060070201600501600082825401925050819055503460096001600460018703815481101515612b1657fe5b90600052602060002090600702016003015403815481101515612b3557fe5b906000526020600020906003020160010160008282540192505081905550505050565b60608060008060008573ffffffffffffffffffffffffffffffffffffffff1673ffffffffffffffffffffffffffffffffffffffff1681526020019081526020016000206000016000808673ffffffffffffffffffffffffffffffffffffffff1673ffffffffffffffffffffffffffffffffffffffff1681526020019081526020016000206001016000808773ffffffffffffffffffffffffffffffffffffffff1673ffffffffffffffffffffffffffffffffffffffff16815260200190815260200160002060020154828054600181600116156101000203166002900480601f016020809104026020016040519081016040528092919081815260200182805460018160011615610100020316600290048015612cb65780601f10612c8b57610100808354040283529160200191612cb6565b820191906000526020600020905b815481529060010190602001808311612c9957829003601f168201915b50505050509250818054600181600116156101000203166002900480601f016020809104026020016040519081016040528092919081815260200182805460018160011615610100020316600290048015612d525780601f10612d2757610100808354040283529160200191612d52565b820191906000526020600020905b815481529060010190602001808311612d3557829003601f168201915b505050505091509250925092509193909250565b828054600181600116156101000203166002900490600052602060002090601f016020900481019282601f10612da757805160ff1916838001178555612dd5565b82800160010185558215612dd5579182015b82811115612dd4578251825591602001919060010190612db9565b5b509050612de29190612eb3565b5090565b828054600181600116156101000203166002900490600052602060002090601f016020900481019282601f10612e2757805160ff1916838001178555612e55565b82800160010185558215612e55579182015b82811115612e54578251825591602001919060010190612e39565b5b509050612e629190612eb3565b5090565b828054828255906000526020600020908101928215612ea2579160200282015b82811115612ea1578251825591602001919060010190612e86565b5b509050612eaf9190612eb3565b5090565b612ed591905b80821115612ed1576000816000905550600101612eb9565b5090565b9056fea165627a7a72305820fe9ee33565be0265b65d8885fd8d06ff82d7bc72f4d94228244face49a6001590029",
  "source": "pragma solidity ^0.5.0;\n\ncontract Toasts {\n\n  struct UserData {\n    bytes name;\n    bytes discription;\n    uint balance;\n  }\n\n  struct Comment {\n    uint comment_id;\n    address author;\n    bytes article_url;\n    uint article_id;\n    bytes comment;\n    uint staked;\n    bool is_good;\n  }\n\n  struct Article{\n    uint[] comments;\n    uint staked;\n    bytes url;\n  }\n\n  mapping(address => UserData) usersData;\n\n  mapping(address => mapping(address => uint)) addressToStakeIndex;\n  mapping(address => address[]) stake_for;\n  mapping(address => uint[]) stake_amount;\n\n\n  Comment[] public comments;\n  mapping( address => uint[]) addressToComments;\n\n  mapping( bytes => uint[]) tagToComments;\n  bytes[] tags;\n  mapping( bytes => uint ) tagToTagid;\n\n\n  Article[] public articles;\n  mapping( bytes32 => uint ) urlToArticleId;\n\n  function signUp(bytes memory _name,bytes memory _discription) public {\n    usersData[msg.sender] = UserData(_name,_discription,0);\n  }\n\n  function sendEther(uint commentid) public payable {\n\n    require(commentid <= comments.length && commentid > 0,\"id is invalid\");\n    address to = comments[commentid-1].author;\n    usersData[to].balance += msg.value;\n    uint index = addressToStakeIndex[msg.sender][to];\n    if (index==0){\n      addressToStakeIndex[msg.sender][to] = stake_for[msg.sender].length+1;\n      stake_for[msg.sender].push(to);\n      stake_amount[msg.sender].push(msg.value);\n    } else{\n      uint val = stake_amount[msg.sender][index-1];\n      stake_amount[msg.sender][index-1] = val + msg.value;\n    }\n    comments[commentid-1].staked += msg.value;\n    articles[comments[commentid-1].article_id-1].staked += msg.value;\n  }\n\n  function toastComment(bytes memory url,bytes memory comment,bool isgood,uint[] memory tagsId) public returns(uint) {\n    bytes32 urlhash = keccak256(url);\n    uint articleId = urlToArticleId[urlhash];\n    if (articleId<=0){\n      urlToArticleId[urlhash] = articles.length+1;\n      articleId = articles.length+1;\n      uint[] memory coms;\n      articles.push(Article(coms,0,url));\n      articles[articleId-1].comments.push(comments.length+1);\n    } else {\n      articles[articleId-1].comments.push(comments.length+1);\n      articles[articleId-1].url = url;\n    }\n\n    addressToComments[msg.sender].push(comments.length+1);\n    comments.push(Comment(comments.length+1,msg.sender,url,articleId,comment,0,isgood));\n    for( uint i = 0; i < tagsId.length; i++ ){\n      if (tagsId[i]<=tags.length && tagsId[i] != 0){\n        tagToComments[tags[tagsId[i]-1]].push(comments.length);\n      }\n    }\n    return comments.length;\n  }\n\n  function addTag(bytes memory tag) public {\n    tags.push(tag);\n    tagToTagid[tag] = tags.length;\n  }\n\n  function withdraw() public {\n    uint balance = usersData[msg.sender].balance;\n    require (balance > 0,\"your balance is not enough\");\n    usersData[msg.sender].balance = 0;\n    msg.sender.transfer(balance);\n  }\n\n  function getUserData(address user) public view returns (bytes memory,bytes memory,uint) {\n    return (usersData[user].name,usersData[user].discription,usersData[user].balance);\n  }\n\n  function getStakes(address user) public view returns (address[] memory,uint[] memory) {\n    return (stake_for[user],stake_amount[user]);\n  }\n\n  function getStakeIndex(address user) public view returns (uint) {\n    return (addressToStakeIndex[msg.sender][user]);\n  }\n\n  function getComment(uint commentid) public view returns (address, bytes memory, bytes memory, uint, bool, uint, uint) {\n    require(commentid>0 && commentid <= comments.length,\"commentid is invalid\");\n    uint index = commentid - 1;\n    return (comments[index].author,comments[index].article_url,comments[index].comment,\n          comments[index].staked,comments[index].is_good,commentid,comments[index].article_id);\n  }\n\n  function getUsersCommentsIndex(address user) public view returns (uint[] memory) {\n    return addressToComments[user];\n  }\n\n  function getCommentsFromTag(bytes memory tag) public view returns (uint[] memory) {\n    return tagToComments[tag];\n  }\n\n  function getTagCount() public view returns (uint){\n    return tags.length;\n  }\n\n  function getTag(uint tagid) public view returns (bytes memory){\n    require(tagid>=1&&tagid<=tags.length,\"tagid is invalid\");\n    return tags[tagid-1];\n  }\n\n  function getTagId(bytes memory tag) public view returns (uint) {\n    return tagToTagid[tag];\n  }\n\n  function getArtcileInfoFromUrl(bytes memory url) public view returns (uint,uint[] memory,uint){\n    uint id = urlToArticleId[keccak256(url)];\n    require(id>0&&id<=articles.length,\"id is invalid\");\n    return (id,articles[id-1].comments,articles[id-1].staked);\n  }\n\n  function getArticleInfoFromId(uint id) public view returns (bytes memory,uint[] memory,uint){\n    require(id>0&&id<=articles.length,\"id is invalid\");\n    return (articles[id-1].url,articles[id-1].comments,articles[id-1].staked);\n  }\n\n\n}\n",
  "sourcePath": "/Users/kajiwarawataruju/Develop/toast/truffle/contracts/Toasts.sol",
  "compiler": {
    "name": "solc",
    "version": "0.5.0+commit.1d4f565a.Emscripten.clang"
  },
  "schemaVersion": "3.0.1",
  "updatedAt": "2019-11-17T14:24:49.309Z",
  "devdoc": {
    "methods": {}
  },
  "userdoc": {
    "methods": {}
  }
}