{
  "contractName": "Toasts",
  "abi": [
    {
      "constant": true,
      "inputs": [
        {
          "name": "",
          "type": "uint256"
        }
      ],
      "name": "comments",
      "outputs": [
        {
          "name": "author",
          "type": "address"
        },
        {
          "name": "article_url",
          "type": "bytes"
        },
        {
          "name": "article_id",
          "type": "uint256"
        },
        {
          "name": "comment",
          "type": "string"
        },
        {
          "name": "staked",
          "type": "uint256"
        },
        {
          "name": "is_good",
          "type": "bool"
        }
      ],
      "payable": false,
      "stateMutability": "view",
      "type": "function",
      "signature": "0x8ebb4c15"
    },
    {
      "constant": true,
      "inputs": [
        {
          "name": "",
          "type": "uint256"
        }
      ],
      "name": "articles",
      "outputs": [
        {
          "name": "staked",
          "type": "uint256"
        },
        {
          "name": "url",
          "type": "bytes"
        }
      ],
      "payable": false,
      "stateMutability": "view",
      "type": "function",
      "signature": "0xedcfafe6"
    },
    {
      "constant": false,
      "inputs": [
        {
          "name": "_name",
          "type": "bytes"
        },
        {
          "name": "_discription",
          "type": "bytes"
        }
      ],
      "name": "signUp",
      "outputs": [],
      "payable": false,
      "stateMutability": "nonpayable",
      "type": "function",
      "signature": "0x20c2175c"
    },
    {
      "constant": false,
      "inputs": [
        {
          "name": "commentid",
          "type": "uint256"
        }
      ],
      "name": "sendEther",
      "outputs": [],
      "payable": true,
      "stateMutability": "payable",
      "type": "function",
      "signature": "0xf88d331a"
    },
    {
      "constant": false,
      "inputs": [
        {
          "name": "url",
          "type": "bytes"
        },
        {
          "name": "comment",
          "type": "string"
        },
        {
          "name": "isgood",
          "type": "bool"
        },
        {
          "name": "tagsId",
          "type": "uint256[]"
        }
      ],
      "name": "toastComment",
      "outputs": [
        {
          "name": "",
          "type": "uint256"
        }
      ],
      "payable": false,
      "stateMutability": "nonpayable",
      "type": "function",
      "signature": "0x6be35175"
    },
    {
      "constant": false,
      "inputs": [
        {
          "name": "tag",
          "type": "string"
        }
      ],
      "name": "addTag",
      "outputs": [],
      "payable": false,
      "stateMutability": "nonpayable",
      "type": "function",
      "signature": "0xde0cc45b"
    },
    {
      "constant": false,
      "inputs": [],
      "name": "withdraw",
      "outputs": [],
      "payable": false,
      "stateMutability": "nonpayable",
      "type": "function",
      "signature": "0x3ccfd60b"
    },
    {
      "constant": true,
      "inputs": [
        {
          "name": "user",
          "type": "address"
        }
      ],
      "name": "getUserData",
      "outputs": [
        {
          "name": "",
          "type": "bytes"
        },
        {
          "name": "",
          "type": "bytes"
        },
        {
          "name": "",
          "type": "uint256"
        }
      ],
      "payable": false,
      "stateMutability": "view",
      "type": "function",
      "signature": "0xffc9896b"
    },
    {
      "constant": true,
      "inputs": [
        {
          "name": "user",
          "type": "address"
        }
      ],
      "name": "getStakes",
      "outputs": [
        {
          "name": "",
          "type": "address[]"
        },
        {
          "name": "",
          "type": "uint256[]"
        }
      ],
      "payable": false,
      "stateMutability": "view",
      "type": "function",
      "signature": "0x7ba6f458"
    },
    {
      "constant": true,
      "inputs": [
        {
          "name": "user",
          "type": "address"
        }
      ],
      "name": "getStakeIndex",
      "outputs": [
        {
          "name": "",
          "type": "uint256"
        }
      ],
      "payable": false,
      "stateMutability": "view",
      "type": "function",
      "signature": "0x4ea4e6b8"
    },
    {
      "constant": true,
      "inputs": [
        {
          "name": "commentid",
          "type": "uint256"
        }
      ],
      "name": "getComment",
      "outputs": [
        {
          "name": "",
          "type": "address"
        },
        {
          "name": "",
          "type": "bytes"
        },
        {
          "name": "",
          "type": "string"
        },
        {
          "name": "",
          "type": "uint256"
        },
        {
          "name": "",
          "type": "bool"
        }
      ],
      "payable": false,
      "stateMutability": "view",
      "type": "function",
      "signature": "0x0800e300"
    },
    {
      "constant": true,
      "inputs": [
        {
          "name": "user",
          "type": "address"
        }
      ],
      "name": "getUsersCommentsIndex",
      "outputs": [
        {
          "name": "",
          "type": "uint256[]"
        }
      ],
      "payable": false,
      "stateMutability": "view",
      "type": "function",
      "signature": "0xb9fd4fc8"
    },
    {
      "constant": true,
      "inputs": [
        {
          "name": "tag",
          "type": "string"
        }
      ],
      "name": "getCommentsFromTag",
      "outputs": [
        {
          "name": "",
          "type": "uint256[]"
        }
      ],
      "payable": false,
      "stateMutability": "view",
      "type": "function",
      "signature": "0x011874c5"
    },
    {
      "constant": true,
      "inputs": [],
      "name": "getTagCount",
      "outputs": [
        {
          "name": "",
          "type": "uint256"
        }
      ],
      "payable": false,
      "stateMutability": "view",
      "type": "function",
      "signature": "0x986f191c"
    },
    {
      "constant": true,
      "inputs": [
        {
          "name": "tagid",
          "type": "uint256"
        }
      ],
      "name": "getTag",
      "outputs": [
        {
          "name": "",
          "type": "string"
        }
      ],
      "payable": false,
      "stateMutability": "view",
      "type": "function",
      "signature": "0x691bbb69"
    },
    {
      "constant": true,
      "inputs": [
        {
          "name": "tag",
          "type": "string"
        }
      ],
      "name": "getTagId",
      "outputs": [
        {
          "name": "",
          "type": "uint256"
        }
      ],
      "payable": false,
      "stateMutability": "view",
      "type": "function",
      "signature": "0x04befefd"
    },
    {
      "constant": true,
      "inputs": [
        {
          "name": "url",
          "type": "bytes"
        }
      ],
      "name": "getArtcileInfoFromUrl",
      "outputs": [
        {
          "name": "",
          "type": "uint256"
        },
        {
          "name": "",
          "type": "uint256[]"
        },
        {
          "name": "",
          "type": "uint256"
        }
      ],
      "payable": false,
      "stateMutability": "view",
      "type": "function",
      "signature": "0xaee7deb9"
    },
    {
      "constant": true,
      "inputs": [
        {
          "name": "id",
          "type": "uint256"
        }
      ],
      "name": "getArticleInfoFromId",
      "outputs": [
        {
          "name": "",
          "type": "bytes"
        },
        {
          "name": "",
          "type": "uint256[]"
        },
        {
          "name": "",
          "type": "uint256"
        }
      ],
      "payable": false,
      "stateMutability": "view",
      "type": "function",
      "signature": "0x98ffe817"
    }
  ],
  "bytecode": "0x608060405234801561001057600080fd5b50612f3d806100206000396000f3fe6080604052600436106100fc576000357c0100000000000000000000000000000000000000000000000000000000900463ffffffff168063011874c51461010157806304befefd1461021e5780630800e300146102fa57806320c2175c1461045f5780633ccfd60b146105be5780634ea4e6b8146105d5578063691bbb691461063a5780636be35175146106ee5780637ba6f458146109015780638ebb4c15146109ef578063986f191c14610b5b57806398ffe81714610b86578063aee7deb914610c89578063b9fd4fc814610db4578063de0cc45b14610e5a578063edcfafe614610f22578063f88d331a14610fdd578063ffc9896b1461100b575b600080fd5b34801561010d57600080fd5b506101c76004803603602081101561012457600080fd5b810190808035906020019064010000000081111561014157600080fd5b82018360208201111561015357600080fd5b8035906020019184600183028401116401000000008311171561017557600080fd5b91908080601f016020809104026020016040519081016040528093929190818152602001838380828437600081840152601f19601f820116905080830192505050505050509192919290505050611148565b6040518080602001828103825283818151815260200191508051906020019060200280838360005b8381101561020a5780820151818401526020810190506101ef565b505050509050019250505060405180910390f35b34801561022a57600080fd5b506102e46004803603602081101561024157600080fd5b810190808035906020019064010000000081111561025e57600080fd5b82018360208201111561027057600080fd5b8035906020019184600183028401116401000000008311171561029257600080fd5b91908080601f016020809104026020016040519081016040528093929190818152602001838380828437600081840152601f19601f82011690508083019250505050505050919291929050505061120b565b6040518082815260200191505060405180910390f35b34801561030657600080fd5b506103336004803603602081101561031d57600080fd5b8101908080359060200190929190505050611280565b604051808673ffffffffffffffffffffffffffffffffffffffff1673ffffffffffffffffffffffffffffffffffffffff168152602001806020018060200185815260200184151515158152602001838103835287818151815260200191508051906020019080838360005b838110156103b957808201518184015260208101905061039e565b50505050905090810190601f1680156103e65780820380516001836020036101000a031916815260200191505b50838103825286818151815260200191508051906020019080838360005b8381101561041f578082015181840152602081019050610404565b50505050905090810190601f16801561044c5780820380516001836020036101000a031916815260200191505b5097505050505050505060405180910390f35b34801561046b57600080fd5b506105bc6004803603604081101561048257600080fd5b810190808035906020019064010000000081111561049f57600080fd5b8201836020820111156104b157600080fd5b803590602001918460018302840111640100000000831117156104d357600080fd5b91908080601f016020809104026020016040519081016040528093929190818152602001838380828437600081840152601f19601f8201169050808301925050505050505091929192908035906020019064010000000081111561053657600080fd5b82018360208201111561054857600080fd5b8035906020019184600183028401116401000000008311171561056a57600080fd5b91908080601f016020809104026020016040519081016040528093929190818152602001838380828437600081840152601f19601f820116905080830192505050505050509192919290505050611535565b005b3480156105ca57600080fd5b506105d36115db565b005b3480156105e157600080fd5b50610624600480360360208110156105f857600080fd5b81019080803573ffffffffffffffffffffffffffffffffffffffff16906020019092919050505061172a565b6040518082815260200191505060405180910390f35b34801561064657600080fd5b506106736004803603602081101561065d57600080fd5b81019080803590602001909291905050506117b0565b6040518080602001828103825283818151815260200191508051906020019080838360005b838110156106b3578082015181840152602081019050610698565b50505050905090810190601f1680156106e05780820380516001836020036101000a031916815260200191505b509250505060405180910390f35b3480156106fa57600080fd5b506108eb6004803603608081101561071157600080fd5b810190808035906020019064010000000081111561072e57600080fd5b82018360208201111561074057600080fd5b8035906020019184600183028401116401000000008311171561076257600080fd5b91908080601f016020809104026020016040519081016040528093929190818152602001838380828437600081840152601f19601f820116905080830192505050505050509192919290803590602001906401000000008111156107c557600080fd5b8201836020820111156107d757600080fd5b803590602001918460018302840111640100000000831117156107f957600080fd5b91908080601f016020809104026020016040519081016040528093929190818152602001838380828437600081840152601f19601f8201169050808301925050505050505091929192908035151590602001909291908035906020019064010000000081111561086857600080fd5b82018360208201111561087a57600080fd5b8035906020019184602083028401116401000000008311171561089c57600080fd5b919080806020026020016040519081016040528093929190818152602001838360200280828437600081840152601f19601f8201169050808301925050505050505091929192905050506118f8565b6040518082815260200191505060405180910390f35b34801561090d57600080fd5b506109506004803603602081101561092457600080fd5b81019080803573ffffffffffffffffffffffffffffffffffffffff169060200190929190505050611db6565b604051808060200180602001838103835285818151815260200191508051906020019060200280838360005b8381101561099757808201518184015260208101905061097c565b50505050905001838103825284818151815260200191508051906020019060200280838360005b838110156109d95780820151818401526020810190506109be565b5050505090500194505050505060405180910390f35b3480156109fb57600080fd5b50610a2860048036036020811015610a1257600080fd5b8101908080359060200190929190505050611f1a565b604051808773ffffffffffffffffffffffffffffffffffffffff1673ffffffffffffffffffffffffffffffffffffffff168152602001806020018681526020018060200185815260200184151515158152602001838103835288818151815260200191508051906020019080838360005b83811015610ab4578082015181840152602081019050610a99565b50505050905090810190601f168015610ae15780820380516001836020036101000a031916815260200191505b50838103825286818151815260200191508051906020019080838360005b83811015610b1a578082015181840152602081019050610aff565b50505050905090810190601f168015610b475780820380516001836020036101000a031916815260200191505b509850505050505050505060405180910390f35b348015610b6757600080fd5b50610b706120c2565b6040518082815260200191505060405180910390f35b348015610b9257600080fd5b50610bbf60048036036020811015610ba957600080fd5b81019080803590602001909291905050506120cf565b604051808060200180602001848152602001838103835286818151815260200191508051906020019080838360005b83811015610c09578082015181840152602081019050610bee565b50505050905090810190601f168015610c365780820380516001836020036101000a031916815260200191505b50838103825285818151815260200191508051906020019060200280838360005b83811015610c72578082015181840152602081019050610c57565b505050509050019550505050505060405180910390f35b348015610c9557600080fd5b50610d4f60048036036020811015610cac57600080fd5b8101908080359060200190640100000000811115610cc957600080fd5b820183602082011115610cdb57600080fd5b80359060200191846001830284011164010000000083111715610cfd57600080fd5b91908080601f016020809104026020016040519081016040528093929190818152602001838380828437600081840152601f19601f8201169050808301925050505050505091929192905050506122c1565b6040518084815260200180602001838152602001828103825284818151815260200191508051906020019060200280838360005b83811015610d9e578082015181840152602081019050610d83565b5050505090500194505050505060405180910390f35b348015610dc057600080fd5b50610e0360048036036020811015610dd757600080fd5b81019080803573ffffffffffffffffffffffffffffffffffffffff169060200190929190505050612416565b6040518080602001828103825283818151815260200191508051906020019060200280838360005b83811015610e46578082015181840152602081019050610e2b565b505050509050019250505060405180910390f35b348015610e6657600080fd5b50610f2060048036036020811015610e7d57600080fd5b8101908080359060200190640100000000811115610e9a57600080fd5b820183602082011115610eac57600080fd5b80359060200191846001830284011164010000000083111715610ece57600080fd5b91908080601f016020809104026020016040519081016040528093929190818152602001838380828437600081840152601f19601f8201169050808301925050505050505091929192905050506124ad565b005b348015610f2e57600080fd5b50610f5b60048036036020811015610f4557600080fd5b8101908080359060200190929190505050612564565b6040518083815260200180602001828103825283818151815260200191508051906020019080838360005b83811015610fa1578082015181840152602081019050610f86565b50505050905090810190601f168015610fce5780820380516001836020036101000a031916815260200191505b50935050505060405180910390f35b61100960048036036020811015610ff357600080fd5b810190808035906020019092919050505061262f565b005b34801561101757600080fd5b5061105a6004803603602081101561102e57600080fd5b81019080803573ffffffffffffffffffffffffffffffffffffffff169060200190929190505050612a91565b604051808060200180602001848152602001838103835286818151815260200191508051906020019080838360005b838110156110a4578082015181840152602081019050611089565b50505050905090810190601f1680156110d15780820380516001836020036101000a031916815260200191505b50838103825285818151815260200191508051906020019080838360005b8381101561110a5780820151818401526020810190506110ef565b50505050905090810190601f1680156111375780820380516001836020036101000a031916815260200191505b509550505050505060405180910390f35b60606006826040518082805190602001908083835b602083101515611182578051825260208201915060208101905060208303925061115d565b6001836020036101000a03801982511681845116808217855250505050505090500191505090815260200160405180910390208054806020026020016040519081016040528092919081815260200182805480156111ff57602002820191906000526020600020905b8154815260200190600101908083116111eb575b50505050509050919050565b60006008826040518082805190602001908083835b6020831015156112455780518252602082019150602081019050602083039250611220565b6001836020036101000a0380198251168184511680821785525050505050509050019150509081526020016040518091039020549050919050565b600060608060008060008611801561129d57506004805490508611155b1515611311576040517f08c379a00000000000000000000000000000000000000000000000000000000081526004018080602001828103825260148152602001807f636f6d6d656e74696420697320696e76616c696400000000000000000000000081525060200191505060405180910390fd5b600060018703905060048181548110151561132857fe5b906000526020600020906006020160000160009054906101000a900473ffffffffffffffffffffffffffffffffffffffff1660048281548110151561136957fe5b906000526020600020906006020160010160048381548110151561138957fe5b90600052602060002090600602016003016004848154811015156113a957fe5b9060005260206000209060060201600401546004858154811015156113ca57fe5b906000526020600020906006020160050160009054906101000a900460ff16838054600181600116156101000203166002900480601f01602080910402602001604051908101604052809291908181526020018280546001816001161561010002031660029004801561147e5780601f106114535761010080835404028352916020019161147e565b820191906000526020600020905b81548152906001019060200180831161146157829003601f168201915b50505050509350828054600181600116156101000203166002900480601f01602080910402602001604051908101604052809291908181526020018280546001816001161561010002031660029004801561151a5780601f106114ef5761010080835404028352916020019161151a565b820191906000526020600020905b8154815290600101906020018083116114fd57829003601f168201915b50505050509250955095509550955095505091939590929450565b60606040519081016040528083815260200182815260200160008152506000803373ffffffffffffffffffffffffffffffffffffffff1673ffffffffffffffffffffffffffffffffffffffff16815260200190815260200160002060008201518160000190805190602001906115ac929190612c9f565b5060208201518160010190805190602001906115c9929190612c9f565b50604082015181600201559050505050565b60008060003373ffffffffffffffffffffffffffffffffffffffff1673ffffffffffffffffffffffffffffffffffffffff168152602001908152602001600020600201549050600081111515611699576040517f08c379a000000000000000000000000000000000000000000000000000000000815260040180806020018281038252601a8152602001807f796f75722062616c616e6365206973206e6f7420656e6f75676800000000000081525060200191505060405180910390fd5b60008060003373ffffffffffffffffffffffffffffffffffffffff1673ffffffffffffffffffffffffffffffffffffffff168152602001908152602001600020600201819055503373ffffffffffffffffffffffffffffffffffffffff166108fc829081150290604051600060405180830381858888f19350505050158015611726573d6000803e3d6000fd5b5050565b6000600160003373ffffffffffffffffffffffffffffffffffffffff1673ffffffffffffffffffffffffffffffffffffffff16815260200190815260200160002060008373ffffffffffffffffffffffffffffffffffffffff1673ffffffffffffffffffffffffffffffffffffffff168152602001908152602001600020549050919050565b6060600182101580156117c857506007805490508211155b151561183c576040517f08c379a00000000000000000000000000000000000000000000000000000000081526004018080602001828103825260108152602001807f746167696420697320696e76616c69640000000000000000000000000000000081525060200191505060405180910390fd5b60076001830381548110151561184e57fe5b906000526020600020018054600181600116156101000203166002900480601f0160208091040260200160405190810160405280929190818152602001828054600181600116156101000203166002900480156118ec5780601f106118c1576101008083540402835291602001916118ec565b820191906000526020600020905b8154815290600101906020018083116118cf57829003601f168201915b50505050509050919050565b600080858051906020012090506000600a6000838152602001908152602001600020549050600081111515611a4057600160098054905001600a600084815260200190815260200160002081905550600160098054905001905060606009606060405190810160405280838152602001600081526020018a8152509080600181540180825580915050906001820390600052602060002090600302016000909192909190915060008201518160000190805190602001906119ba929190612d1f565b506020820151816001015560408201518160020190805190602001906119e1929190612c9f565b505050506009600183038154811015156119f757fe5b9060005260206000209060030201600001600160048054905001908060018154018082558091505090600182039060005260206000200160009091929091909150555050611ace565b600960018203815481101515611a5257fe5b9060005260206000209060030201600001600160048054905001908060018154018082558091505090600182039060005260206000200160009091929091909150555086600960018303815481101515611aa857fe5b90600052602060002090600302016002019080519060200190611acc929190612d6c565b505b600560003373ffffffffffffffffffffffffffffffffffffffff1673ffffffffffffffffffffffffffffffffffffffff1681526020019081526020016000206001600480549050019080600181540180825580915050906001820390600052602060002001600090919290919091505550600460c0604051908101604052803373ffffffffffffffffffffffffffffffffffffffff168152602001898152602001838152602001888152602001600081526020018715158152509080600181540180825580915050906001820390600052602060002090600602016000909192909190915060008201518160000160006101000a81548173ffffffffffffffffffffffffffffffffffffffff021916908373ffffffffffffffffffffffffffffffffffffffff1602179055506020820151816001019080519060200190611c16929190612c9f565b50604082015181600201556060820151816003019080519060200190611c3d929190612dec565b506080820151816004015560a08201518160050160006101000a81548160ff02191690831515021790555050505060008090505b8451811015611da3576007805490508582815181101515611c8e57fe5b9060200190602002015111158015611cbe575060008582815181101515611cb157fe5b9060200190602002015114155b15611d96576006600760018784815181101515611cd757fe5b9060200190602002015103815481101515611cee57fe5b906000526020600020016040518082805460018160011615610100020316600290048015611d535780601f10611d31576101008083540402835291820191611d53565b820191906000526020600020905b815481529060010190602001808311611d3f575b5050915050908152602001604051809103902060048054905090806001815401808255809150509060018203906000526020600020016000909192909190915055505b8080600101915050611c71565b5060048054905092505050949350505050565b606080600260008473ffffffffffffffffffffffffffffffffffffffff1673ffffffffffffffffffffffffffffffffffffffff168152602001908152602001600020600360008573ffffffffffffffffffffffffffffffffffffffff1673ffffffffffffffffffffffffffffffffffffffff16815260200190815260200160002081805480602002602001604051908101604052809291908181526020018280548015611eb857602002820191906000526020600020905b8160009054906101000a900473ffffffffffffffffffffffffffffffffffffffff1673ffffffffffffffffffffffffffffffffffffffff1681526020019060010190808311611e6e575b5050505050915080805480602002602001604051908101604052809291908181526020018280548015611f0a57602002820191906000526020600020905b815481526020019060010190808311611ef6575b5050505050905091509150915091565b600481815481101515611f2957fe5b90600052602060002090600602016000915090508060000160009054906101000a900473ffffffffffffffffffffffffffffffffffffffff1690806001018054600181600116156101000203166002900480601f016020809104026020016040519081016040528092919081815260200182805460018160011615610100020316600290048015611ffb5780601f10611fd057610100808354040283529160200191611ffb565b820191906000526020600020905b815481529060010190602001808311611fde57829003601f168201915b505050505090806002015490806003018054600181600116156101000203166002900480601f01602080910402602001604051908101604052809291908181526020018280546001816001161561010002031660029004801561209f5780601f106120745761010080835404028352916020019161209f565b820191906000526020600020905b81548152906001019060200180831161208257829003601f168201915b5050505050908060040154908060050160009054906101000a900460ff16905086565b6000600780549050905090565b606080600080841180156120e857506009805490508411155b151561215c576040517f08c379a000000000000000000000000000000000000000000000000000000000815260040180806020018281038252600d8152602001807f696420697320696e76616c69640000000000000000000000000000000000000081525060200191505060405180910390fd5b60096001850381548110151561216e57fe5b906000526020600020906003020160020160096001860381548110151561219157fe5b90600052602060002090600302016000016009600187038154811015156121b457fe5b906000526020600020906003020160010154828054600181600116156101000203166002900480601f01602080910402602001604051908101604052809291908181526020018280546001816001161561010002031660029004801561225b5780601f106122305761010080835404028352916020019161225b565b820191906000526020600020905b81548152906001019060200180831161223e57829003601f168201915b50505050509250818054806020026020016040519081016040528092919081815260200182805480156122ad57602002820191906000526020600020905b815481526020019060010190808311612299575b505050505091509250925092509193909250565b60006060600080600a6000868051906020012081526020019081526020016000205490506000811180156122fa57506009805490508111155b151561236e576040517f08c379a000000000000000000000000000000000000000000000000000000000815260040180806020018281038252600d8152602001807f696420697320696e76616c69640000000000000000000000000000000000000081525060200191505060405180910390fd5b8060096001830381548110151561238157fe5b90600052602060002090600302016000016009600184038154811015156123a457fe5b9060005260206000209060030201600101548180548060200260200160405190810160405280929190818152602001828054801561240157602002820191906000526020600020905b8154815260200190600101908083116123ed575b50505050509150935093509350509193909250565b6060600560008373ffffffffffffffffffffffffffffffffffffffff1673ffffffffffffffffffffffffffffffffffffffff1681526020019081526020016000208054806020026020016040519081016040528092919081815260200182805480156124a157602002820191906000526020600020905b81548152602001906001019080831161248d575b50505050509050919050565b60078190806001815401808255809150509060018203906000526020600020016000909192909190915090805190602001906124ea929190612e6c565b50506007805490506008826040518082805190602001908083835b60208310151561252a5780518252602082019150602081019050602083039250612505565b6001836020036101000a03801982511681845116808217855250505050505090500191505090815260200160405180910390208190555050565b60098181548110151561257357fe5b9060005260206000209060030201600091509050806001015490806002018054600181600116156101000203166002900480601f0160208091040260200160405190810160405280929190818152602001828054600181600116156101000203166002900480156126255780601f106125fa57610100808354040283529160200191612625565b820191906000526020600020905b81548152906001019060200180831161260857829003601f168201915b5050505050905082565b60048054905081111580156126445750600081115b151561264f57600080fd5b600060046001830381548110151561266357fe5b906000526020600020906006020160000160009054906101000a900473ffffffffffffffffffffffffffffffffffffffff169050346000808373ffffffffffffffffffffffffffffffffffffffff1673ffffffffffffffffffffffffffffffffffffffff168152602001908152602001600020600201600082825401925050819055506000600160003373ffffffffffffffffffffffffffffffffffffffff1673ffffffffffffffffffffffffffffffffffffffff16815260200190815260200160002060008373ffffffffffffffffffffffffffffffffffffffff1673ffffffffffffffffffffffffffffffffffffffff1681526020019081526020016000205490506000811415612947576001600260003373ffffffffffffffffffffffffffffffffffffffff1673ffffffffffffffffffffffffffffffffffffffff1681526020019081526020016000208054905001600160003373ffffffffffffffffffffffffffffffffffffffff1673ffffffffffffffffffffffffffffffffffffffff16815260200190815260200160002060008473ffffffffffffffffffffffffffffffffffffffff1673ffffffffffffffffffffffffffffffffffffffff16815260200190815260200160002081905550600260003373ffffffffffffffffffffffffffffffffffffffff1673ffffffffffffffffffffffffffffffffffffffff1681526020019081526020016000208290806001815401808255809150509060018203906000526020600020016000909192909190916101000a81548173ffffffffffffffffffffffffffffffffffffffff021916908373ffffffffffffffffffffffffffffffffffffffff16021790555050600360003373ffffffffffffffffffffffffffffffffffffffff1673ffffffffffffffffffffffffffffffffffffffff168152602001908152602001600020349080600181540180825580915050906001820390600052602060002001600090919290919091505550612a07565b6000600360003373ffffffffffffffffffffffffffffffffffffffff1673ffffffffffffffffffffffffffffffffffffffff1681526020019081526020016000206001830381548110151561299857fe5b90600052602060002001549050348101600360003373ffffffffffffffffffffffffffffffffffffffff1673ffffffffffffffffffffffffffffffffffffffff168152602001908152602001600020600184038154811015156129f757fe5b9060005260206000200181905550505b34600460018503815481101515612a1a57fe5b9060005260206000209060060201600401600082825401925050819055503460096001600460018703815481101515612a4f57fe5b90600052602060002090600602016002015403815481101515612a6e57fe5b906000526020600020906003020160010160008282540192505081905550505050565b60608060008060008573ffffffffffffffffffffffffffffffffffffffff1673ffffffffffffffffffffffffffffffffffffffff1681526020019081526020016000206000016000808673ffffffffffffffffffffffffffffffffffffffff1673ffffffffffffffffffffffffffffffffffffffff1681526020019081526020016000206001016000808773ffffffffffffffffffffffffffffffffffffffff1673ffffffffffffffffffffffffffffffffffffffff16815260200190815260200160002060020154828054600181600116156101000203166002900480601f016020809104026020016040519081016040528092919081815260200182805460018160011615610100020316600290048015612bef5780601f10612bc457610100808354040283529160200191612bef565b820191906000526020600020905b815481529060010190602001808311612bd257829003601f168201915b50505050509250818054600181600116156101000203166002900480601f016020809104026020016040519081016040528092919081815260200182805460018160011615610100020316600290048015612c8b5780601f10612c6057610100808354040283529160200191612c8b565b820191906000526020600020905b815481529060010190602001808311612c6e57829003601f168201915b505050505091509250925092509193909250565b828054600181600116156101000203166002900490600052602060002090601f016020900481019282601f10612ce057805160ff1916838001178555612d0e565b82800160010185558215612d0e579182015b82811115612d0d578251825591602001919060010190612cf2565b5b509050612d1b9190612eec565b5090565b828054828255906000526020600020908101928215612d5b579160200282015b82811115612d5a578251825591602001919060010190612d3f565b5b509050612d689190612eec565b5090565b828054600181600116156101000203166002900490600052602060002090601f016020900481019282601f10612dad57805160ff1916838001178555612ddb565b82800160010185558215612ddb579182015b82811115612dda578251825591602001919060010190612dbf565b5b509050612de89190612eec565b5090565b828054600181600116156101000203166002900490600052602060002090601f016020900481019282601f10612e2d57805160ff1916838001178555612e5b565b82800160010185558215612e5b579182015b82811115612e5a578251825591602001919060010190612e3f565b5b509050612e689190612eec565b5090565b828054600181600116156101000203166002900490600052602060002090601f016020900481019282601f10612ead57805160ff1916838001178555612edb565b82800160010185558215612edb579182015b82811115612eda578251825591602001919060010190612ebf565b5b509050612ee89190612eec565b5090565b612f0e91905b80821115612f0a576000816000905550600101612ef2565b5090565b9056fea165627a7a72305820f5b3c0e354a84b78191c9b4f0f0f38f4e4e443fcbbd54d63ba8cdf54068db6f00029",
  "source": "pragma solidity ^0.5.0;\n\ncontract Toasts {\n\n  struct UserData {\n    bytes name;\n    bytes discription;\n    uint balance;\n  }\n\n  struct Comment {\n    address author;\n    bytes article_url;\n    uint article_id;\n    string comment;\n    uint staked;\n    bool is_good;\n  }\n\n  struct Article{\n    uint[] comments;\n    uint staked;\n    bytes url;\n  }\n\n  mapping(address => UserData) usersData;\n\n  mapping(address => mapping(address => uint)) addressToStakeIndex;\n  mapping(address => address[]) stake_for;\n  mapping(address => uint[]) stake_amount;\n\n\n  Comment[] public comments;\n  mapping( address => uint[]) addressToComments;\n\n  mapping( string => uint[]) tagToComments;\n  string[] tags;\n  mapping( string => uint ) tagToTagid;\n\n\n  Article[] public articles;\n  mapping( bytes32 => uint ) urlToArticleId;\n\n  function signUp(bytes memory _name,bytes memory _discription) public {\n    usersData[msg.sender] = UserData(_name,_discription,0);\n  }\n\n  function sendEther(uint commentid) public payable {\n\n    require(commentid <= comments.length && commentid > 0);\n    address to = comments[commentid-1].author;\n    usersData[to].balance += msg.value;\n    uint index = addressToStakeIndex[msg.sender][to];\n    if (index==0){\n      addressToStakeIndex[msg.sender][to] = stake_for[msg.sender].length+1;\n      stake_for[msg.sender].push(to);\n      stake_amount[msg.sender].push(msg.value);\n    } else{\n      uint val = stake_amount[msg.sender][index-1];\n      stake_amount[msg.sender][index-1] = val + msg.value;\n    }\n    comments[commentid-1].staked += msg.value;\n    articles[comments[commentid-1].article_id-1].staked += msg.value;\n  }\n\n  function toastComment(bytes memory url,string memory comment,bool isgood,uint[] memory tagsId) public returns(uint) {\n    bytes32 urlhash = keccak256(url);\n    uint articleId = urlToArticleId[urlhash];\n    if (articleId<=0){\n      urlToArticleId[urlhash] = articles.length+1;\n      articleId = articles.length+1;\n      uint[] memory coms;\n      articles.push(Article(coms,0,url));\n      articles[articleId-1].comments.push(comments.length+1);\n    } else {\n      articles[articleId-1].comments.push(comments.length+1);\n      articles[articleId-1].url = url;\n    }\n\n    addressToComments[msg.sender].push(comments.length+1);\n    comments.push(Comment(msg.sender,url,articleId,comment,0,isgood));\n    for( uint i = 0; i < tagsId.length; i++ ){\n      if (tagsId[i]<=tags.length && tagsId[i] != 0){\n        tagToComments[tags[tagsId[i]-1]].push(comments.length);\n      }\n    }\n    return comments.length;\n  }\n\n  function addTag(string memory tag) public {\n    tags.push(tag);\n    tagToTagid[tag] = tags.length;\n  }\n\n  function withdraw() public {\n    uint balance = usersData[msg.sender].balance;\n    require (balance > 0,\"your balance is not enough\");\n    usersData[msg.sender].balance = 0;\n    msg.sender.transfer(balance);\n  }\n\n  function getUserData(address user) public view returns (bytes memory,bytes memory,uint) {\n    return (usersData[user].name,usersData[user].discription,usersData[user].balance);\n  }\n\n  function getStakes(address user) public view returns (address[] memory,uint[] memory) {\n    return (stake_for[user],stake_amount[user]);\n  }\n\n  function getStakeIndex(address user) public view returns (uint) {\n    return (addressToStakeIndex[msg.sender][user]);\n  }\n\n  function getComment(uint commentid) public view returns (address,bytes memory,string memory,uint,bool) {\n    require(commentid>0 && commentid <= comments.length,\"commentid is invalid\");\n    uint index = commentid - 1;\n    return (comments[index].author,comments[index].article_url,comments[index].comment,\n          comments[index].staked,comments[index].is_good);\n  }\n\n  function getUsersCommentsIndex(address user) public view returns (uint[] memory) {\n    return addressToComments[user];\n  }\n\n  function getCommentsFromTag(string memory tag) public view returns (uint[] memory) {\n    return tagToComments[tag];\n  }\n\n  function getTagCount() public view returns (uint){\n    return tags.length;\n  }\n\n  function getTag(uint tagid) public view returns (string memory){\n    require(tagid>=1&&tagid<=tags.length,\"tagid is invalid\");\n    return tags[tagid-1];\n  }\n\n  function getTagId(string memory tag) public view returns (uint) {\n    return tagToTagid[tag];\n  }\n\n  function getArtcileInfoFromUrl(bytes memory url) public view returns (uint,uint[] memory,uint){\n    uint id = urlToArticleId[keccak256(url)];\n    require(id>0&&id<=articles.length,\"id is invalid\");\n    return (id,articles[id-1].comments,articles[id-1].staked);\n  }\n\n  function getArticleInfoFromId(uint id) public view returns (bytes memory,uint[] memory,uint){\n    require(id>0&&id<=articles.length,\"id is invalid\");\n    return (articles[id-1].url,articles[id-1].comments,articles[id-1].staked);\n  }\n\n\n}\n",
  "sourcePath": "/Users/kajiwarawataruju/Develop/toast/truffle/contracts/Toasts.sol",
  "compiler": {
    "name": "solc",
    "version": "0.5.0+commit.1d4f565a.Emscripten.clang"
  },
  "schemaVersion": "3.0.1",
  "updatedAt": "2019-11-16T05:01:45.721Z",
  "devdoc": {
    "methods": {}
  },
  "userdoc": {
    "methods": {}
  }
}