{
  "contractName": "Toasts",
  "abi": [
    {
      "constant": true,
      "inputs": [
        {
          "name": "",
          "type": "uint256"
        }
      ],
      "name": "comments",
      "outputs": [
        {
          "name": "author",
          "type": "address"
        },
        {
          "name": "article_url",
          "type": "string"
        },
        {
          "name": "comment",
          "type": "string"
        },
        {
          "name": "staked",
          "type": "uint256"
        },
        {
          "name": "is_good",
          "type": "bool"
        }
      ],
      "payable": false,
      "stateMutability": "view",
      "type": "function",
      "signature": "0x8ebb4c15"
    },
    {
      "constant": false,
      "inputs": [
        {
          "name": "_name",
          "type": "string"
        },
        {
          "name": "_discription",
          "type": "string"
        }
      ],
      "name": "signUp",
      "outputs": [],
      "payable": false,
      "stateMutability": "nonpayable",
      "type": "function",
      "signature": "0xa469a332"
    },
    {
      "constant": false,
      "inputs": [
        {
          "name": "commentid",
          "type": "uint256"
        }
      ],
      "name": "sendEther",
      "outputs": [],
      "payable": true,
      "stateMutability": "payable",
      "type": "function",
      "signature": "0xf88d331a"
    },
    {
      "constant": false,
      "inputs": [
        {
          "name": "url",
          "type": "string"
        },
        {
          "name": "comment",
          "type": "string"
        },
        {
          "name": "isgood",
          "type": "bool"
        },
        {
          "name": "tagsId",
          "type": "uint256[]"
        }
      ],
      "name": "toastComment",
      "outputs": [
        {
          "name": "",
          "type": "uint256"
        }
      ],
      "payable": false,
      "stateMutability": "nonpayable",
      "type": "function",
      "signature": "0x8e950085"
    },
    {
      "constant": false,
      "inputs": [
        {
          "name": "tag",
          "type": "string"
        }
      ],
      "name": "addTag",
      "outputs": [],
      "payable": false,
      "stateMutability": "nonpayable",
      "type": "function",
      "signature": "0xde0cc45b"
    },
    {
      "constant": false,
      "inputs": [],
      "name": "withdraw",
      "outputs": [],
      "payable": false,
      "stateMutability": "nonpayable",
      "type": "function",
      "signature": "0x3ccfd60b"
    },
    {
      "constant": true,
      "inputs": [
        {
          "name": "user",
          "type": "address"
        }
      ],
      "name": "getUserData",
      "outputs": [
        {
          "name": "",
          "type": "string"
        },
        {
          "name": "",
          "type": "string"
        },
        {
          "name": "",
          "type": "uint256"
        }
      ],
      "payable": false,
      "stateMutability": "view",
      "type": "function",
      "signature": "0xffc9896b"
    },
    {
      "constant": true,
      "inputs": [
        {
          "name": "user",
          "type": "address"
        }
      ],
      "name": "getStakes",
      "outputs": [
        {
          "name": "",
          "type": "address[]"
        },
        {
          "name": "",
          "type": "uint256[]"
        }
      ],
      "payable": false,
      "stateMutability": "view",
      "type": "function",
      "signature": "0x7ba6f458"
    },
    {
      "constant": true,
      "inputs": [
        {
          "name": "user",
          "type": "address"
        }
      ],
      "name": "getStakeIndex",
      "outputs": [
        {
          "name": "",
          "type": "uint256"
        }
      ],
      "payable": false,
      "stateMutability": "view",
      "type": "function",
      "signature": "0x4ea4e6b8"
    },
    {
      "constant": true,
      "inputs": [
        {
          "name": "commentid",
          "type": "uint256"
        }
      ],
      "name": "getComment",
      "outputs": [
        {
          "name": "",
          "type": "address"
        },
        {
          "name": "",
          "type": "string"
        },
        {
          "name": "",
          "type": "string"
        },
        {
          "name": "",
          "type": "uint256"
        },
        {
          "name": "",
          "type": "bool"
        }
      ],
      "payable": false,
      "stateMutability": "view",
      "type": "function",
      "signature": "0x0800e300"
    },
    {
      "constant": true,
      "inputs": [
        {
          "name": "user",
          "type": "address"
        }
      ],
      "name": "getUsersCommentsIndex",
      "outputs": [
        {
          "name": "",
          "type": "uint256[]"
        }
      ],
      "payable": false,
      "stateMutability": "view",
      "type": "function",
      "signature": "0xb9fd4fc8"
    },
    {
      "constant": true,
      "inputs": [
        {
          "name": "tag",
          "type": "string"
        }
      ],
      "name": "getCommentsFromTag",
      "outputs": [
        {
          "name": "",
          "type": "uint256[]"
        }
      ],
      "payable": false,
      "stateMutability": "view",
      "type": "function",
      "signature": "0x011874c5"
    },
    {
      "constant": true,
      "inputs": [],
      "name": "getTagCount",
      "outputs": [
        {
          "name": "",
          "type": "uint256"
        }
      ],
      "payable": false,
      "stateMutability": "view",
      "type": "function",
      "signature": "0x986f191c"
    },
    {
      "constant": true,
      "inputs": [
        {
          "name": "tagid",
          "type": "uint256"
        }
      ],
      "name": "getTag",
      "outputs": [
        {
          "name": "",
          "type": "string"
        }
      ],
      "payable": false,
      "stateMutability": "view",
      "type": "function",
      "signature": "0x691bbb69"
    },
    {
      "constant": true,
      "inputs": [
        {
          "name": "url",
          "type": "string"
        }
      ],
      "name": "getArtcileInfo",
      "outputs": [
        {
          "name": "",
          "type": "uint256[]"
        },
        {
          "name": "",
          "type": "uint256"
        }
      ],
      "payable": false,
      "stateMutability": "view",
      "type": "function",
      "signature": "0x238eb058"
    }
  ],
  "bytecode": "0x608060405234801561001057600080fd5b5061244c806100206000396000f3fe6080604052600436106100db576000357c0100000000000000000000000000000000000000000000000000000000900463ffffffff168063011874c5146100e05780630800e300146101fd578063238eb058146103625780633ccfd60b146104865780634ea4e6b81461049d578063691bbb69146105025780637ba6f458146105b65780638e950085146106a45780638ebb4c15146108b7578063986f191c14610a1c578063a469a33214610a47578063b9fd4fc814610ba6578063de0cc45b14610c4c578063f88d331a14610d14578063ffc9896b14610d42575b600080fd5b3480156100ec57600080fd5b506101a66004803603602081101561010357600080fd5b810190808035906020019064010000000081111561012057600080fd5b82018360208201111561013257600080fd5b8035906020019184600183028401116401000000008311171561015457600080fd5b91908080601f016020809104026020016040519081016040528093929190818152602001838380828437600081840152601f19601f820116905080830192505050505050509192919290505050610e7f565b6040518080602001828103825283818151815260200191508051906020019060200280838360005b838110156101e95780820151818401526020810190506101ce565b505050509050019250505060405180910390f35b34801561020957600080fd5b506102366004803603602081101561022057600080fd5b8101908080359060200190929190505050610f42565b604051808673ffffffffffffffffffffffffffffffffffffffff1673ffffffffffffffffffffffffffffffffffffffff168152602001806020018060200185815260200184151515158152602001838103835287818151815260200191508051906020019080838360005b838110156102bc5780820151818401526020810190506102a1565b50505050905090810190601f1680156102e95780820380516001836020036101000a031916815260200191505b50838103825286818151815260200191508051906020019080838360005b83811015610322578082015181840152602081019050610307565b50505050905090810190601f16801561034f5780820380516001836020036101000a031916815260200191505b5097505050505050505060405180910390f35b34801561036e57600080fd5b506104286004803603602081101561038557600080fd5b81019080803590602001906401000000008111156103a257600080fd5b8201836020820111156103b457600080fd5b803590602001918460018302840111640100000000831117156103d657600080fd5b91908080601f016020809104026020016040519081016040528093929190818152602001838380828437600081840152601f19601f82011690508083019250505050505050919291929050505061116e565b6040518080602001838152602001828103825284818151815260200191508051906020019060200280838360005b83811015610471578082015181840152602081019050610456565b50505050905001935050505060405180910390f35b34801561049257600080fd5b5061049b6112a4565b005b3480156104a957600080fd5b506104ec600480360360208110156104c057600080fd5b81019080803573ffffffffffffffffffffffffffffffffffffffff1690602001909291905050506113f3565b6040518082815260200191505060405180910390f35b34801561050e57600080fd5b5061053b6004803603602081101561052557600080fd5b8101908080359060200190929190505050611479565b6040518080602001828103825283818151815260200191508051906020019080838360005b8381101561057b578082015181840152602081019050610560565b50505050905090810190601f1680156105a85780820380516001836020036101000a031916815260200191505b509250505060405180910390f35b3480156105c257600080fd5b50610605600480360360208110156105d957600080fd5b81019080803573ffffffffffffffffffffffffffffffffffffffff169060200190929190505050611534565b604051808060200180602001838103835285818151815260200191508051906020019060200280838360005b8381101561064c578082015181840152602081019050610631565b50505050905001838103825284818151815260200191508051906020019060200280838360005b8381101561068e578082015181840152602081019050610673565b5050505090500194505050505060405180910390f35b3480156106b057600080fd5b506108a1600480360360808110156106c757600080fd5b81019080803590602001906401000000008111156106e457600080fd5b8201836020820111156106f657600080fd5b8035906020019184600183028401116401000000008311171561071857600080fd5b91908080601f016020809104026020016040519081016040528093929190818152602001838380828437600081840152601f19601f8201169050808301925050505050505091929192908035906020019064010000000081111561077b57600080fd5b82018360208201111561078d57600080fd5b803590602001918460018302840111640100000000831117156107af57600080fd5b91908080601f016020809104026020016040519081016040528093929190818152602001838380828437600081840152601f19601f8201169050808301925050505050505091929192908035151590602001909291908035906020019064010000000081111561081e57600080fd5b82018360208201111561083057600080fd5b8035906020019184602083028401116401000000008311171561085257600080fd5b919080806020026020016040519081016040528093929190818152602001838360200280828437600081840152601f19601f820116905080830192505050505050509192919290505050611698565b6040518082815260200191505060405180910390f35b3480156108c357600080fd5b506108f0600480360360208110156108da57600080fd5b810190808035906020019092919050505061196d565b604051808673ffffffffffffffffffffffffffffffffffffffff1673ffffffffffffffffffffffffffffffffffffffff168152602001806020018060200185815260200184151515158152602001838103835287818151815260200191508051906020019080838360005b8381101561097657808201518184015260208101905061095b565b50505050905090810190601f1680156109a35780820380516001836020036101000a031916815260200191505b50838103825286818151815260200191508051906020019080838360005b838110156109dc5780820151818401526020810190506109c1565b50505050905090810190601f168015610a095780820380516001836020036101000a031916815260200191505b5097505050505050505060405180910390f35b348015610a2857600080fd5b50610a31611b0f565b6040518082815260200191505060405180910390f35b348015610a5357600080fd5b50610ba460048036036040811015610a6a57600080fd5b8101908080359060200190640100000000811115610a8757600080fd5b820183602082011115610a9957600080fd5b80359060200191846001830284011164010000000083111715610abb57600080fd5b91908080601f016020809104026020016040519081016040528093929190818152602001838380828437600081840152601f19601f82011690508083019250505050505050919291929080359060200190640100000000811115610b1e57600080fd5b820183602082011115610b3057600080fd5b80359060200191846001830284011164010000000083111715610b5257600080fd5b91908080601f016020809104026020016040519081016040528093929190818152602001838380828437600081840152601f19601f820116905080830192505050505050509192919290505050611b1c565b005b348015610bb257600080fd5b50610bf560048036036020811015610bc957600080fd5b81019080803573ffffffffffffffffffffffffffffffffffffffff169060200190929190505050611bc2565b6040518080602001828103825283818151815260200191508051906020019060200280838360005b83811015610c38578082015181840152602081019050610c1d565b505050509050019250505060405180910390f35b348015610c5857600080fd5b50610d1260048036036020811015610c6f57600080fd5b8101908080359060200190640100000000811115610c8c57600080fd5b820183602082011115610c9e57600080fd5b80359060200191846001830284011164010000000083111715610cc057600080fd5b91908080601f016020809104026020016040519081016040528093929190818152602001838380828437600081840152601f19601f820116905080830192505050505050509192919290505050611c59565b005b610d4060048036036020811015610d2a57600080fd5b8101908080359060200190929190505050611d10565b005b348015610d4e57600080fd5b50610d9160048036036020811015610d6557600080fd5b81019080803573ffffffffffffffffffffffffffffffffffffffff1690602001909291905050506120ed565b604051808060200180602001848152602001838103835286818151815260200191508051906020019080838360005b83811015610ddb578082015181840152602081019050610dc0565b50505050905090810190601f168015610e085780820380516001836020036101000a031916815260200191505b50838103825285818151815260200191508051906020019080838360005b83811015610e41578082015181840152602081019050610e26565b50505050905090810190601f168015610e6e5780820380516001836020036101000a031916815260200191505b509550505050505060405180910390f35b60606008826040518082805190602001908083835b602083101515610eb95780518252602082019150602081019050602083039250610e94565b6001836020036101000a0380198251168184511680821785525050505050509050019150509081526020016040518091039020805480602002602001604051908101604052809291908181526020018280548015610f3657602002820191906000526020600020905b815481526020019060010190808311610f22575b50505050509050919050565b60006060806000806000600187039050600481815481101515610f6157fe5b906000526020600020906005020160000160009054906101000a900473ffffffffffffffffffffffffffffffffffffffff16600482815481101515610fa257fe5b9060005260206000209060050201600101600483815481101515610fc257fe5b9060005260206000209060050201600201600484815481101515610fe257fe5b90600052602060002090600502016003015460048581548110151561100357fe5b906000526020600020906005020160040160009054906101000a900460ff16838054600181600116156101000203166002900480601f0160208091040260200160405190810160405280929190818152602001828054600181600116156101000203166002900480156110b75780601f1061108c576101008083540402835291602001916110b7565b820191906000526020600020905b81548152906001019060200180831161109a57829003601f168201915b50505050509350828054600181600116156101000203166002900480601f0160208091040260200160405190810160405280929190818152602001828054600181600116156101000203166002900480156111535780601f1061112857610100808354040283529160200191611153565b820191906000526020600020905b81548152906001019060200180831161113657829003601f168201915b50505050509250955095509550955095505091939590929450565b606060006006836040518082805190602001908083835b6020831015156111aa5780518252602082019150602081019050602083039250611185565b6001836020036101000a03801982511681845116808217855250505050505090500191505090815260200160405180910390206007846040518082805190602001908083835b60208310151561121557805182526020820191506020810190506020830392506111f0565b6001836020036101000a0380198251168184511680821785525050505050509050019150509081526020016040518091039020548180548060200260200160405190810160405280929190818152602001828054801561129457602002820191906000526020600020905b815481526020019060010190808311611280575b5050505050915091509150915091565b60008060003373ffffffffffffffffffffffffffffffffffffffff1673ffffffffffffffffffffffffffffffffffffffff168152602001908152602001600020600201549050600081111515611362576040517f08c379a000000000000000000000000000000000000000000000000000000000815260040180806020018281038252601a8152602001807f796f75722062616c616e6365206973206e6f7420656e6f75676800000000000081525060200191505060405180910390fd5b60008060003373ffffffffffffffffffffffffffffffffffffffff1673ffffffffffffffffffffffffffffffffffffffff168152602001908152602001600020600201819055503373ffffffffffffffffffffffffffffffffffffffff166108fc829081150290604051600060405180830381858888f193505050501580156113ef573d6000803e3d6000fd5b5050565b6000600160003373ffffffffffffffffffffffffffffffffffffffff1673ffffffffffffffffffffffffffffffffffffffff16815260200190815260200160002060008373ffffffffffffffffffffffffffffffffffffffff1673ffffffffffffffffffffffffffffffffffffffff168152602001908152602001600020549050919050565b606060098281548110151561148a57fe5b906000526020600020018054600181600116156101000203166002900480601f0160208091040260200160405190810160405280929190818152602001828054600181600116156101000203166002900480156115285780601f106114fd57610100808354040283529160200191611528565b820191906000526020600020905b81548152906001019060200180831161150b57829003601f168201915b50505050509050919050565b606080600260008473ffffffffffffffffffffffffffffffffffffffff1673ffffffffffffffffffffffffffffffffffffffff168152602001908152602001600020600360008573ffffffffffffffffffffffffffffffffffffffff1673ffffffffffffffffffffffffffffffffffffffff1681526020019081526020016000208180548060200260200160405190810160405280929190818152602001828054801561163657602002820191906000526020600020905b8160009054906101000a900473ffffffffffffffffffffffffffffffffffffffff1673ffffffffffffffffffffffffffffffffffffffff16815260200190600101908083116115ec575b505050505091508080548060200260200160405190810160405280929190818152602001828054801561168857602002820191906000526020600020905b815481526020019060010190808311611674575b5050505050905091509150915091565b6000600460a0604051908101604052803373ffffffffffffffffffffffffffffffffffffffff168152602001878152602001868152602001600081526020018515158152509080600181540180825580915050906001820390600052602060002090600502016000909192909190915060008201518160000160006101000a81548173ffffffffffffffffffffffffffffffffffffffff021916908373ffffffffffffffffffffffffffffffffffffffff160217905550602082015181600101908051906020019061176b9291906122fb565b5060408201518160020190805190602001906117889291906122fb565b506060820151816003015560808201518160040160006101000a81548160ff021916908315150217905550505050600560003373ffffffffffffffffffffffffffffffffffffffff1673ffffffffffffffffffffffffffffffffffffffff168152602001908152602001600020600480549050908060018154018082558091505090600182039060005260206000200160009091929091909150555060008090505b825181101561195c57600980549050838281518110151561184757fe5b906020019060200201511115801561187757506000838281518110151561186a57fe5b9060200190602002015114155b1561194f57600860096001858481518110151561189057fe5b90602001906020020151038154811015156118a757fe5b90600052602060002001604051808280546001816001161561010002031660029004801561190c5780601f106118ea57610100808354040283529182019161190c565b820191906000526020600020905b8154815290600101906020018083116118f8575b5050915050908152602001604051809103902060048054905090806001815401808255809150509060018203906000526020600020016000909192909190915055505b808060010191505061182a565b506004805490509050949350505050565b60048181548110151561197c57fe5b90600052602060002090600502016000915090508060000160009054906101000a900473ffffffffffffffffffffffffffffffffffffffff1690806001018054600181600116156101000203166002900480601f016020809104026020016040519081016040528092919081815260200182805460018160011615610100020316600290048015611a4e5780601f10611a2357610100808354040283529160200191611a4e565b820191906000526020600020905b815481529060010190602001808311611a3157829003601f168201915b505050505090806002018054600181600116156101000203166002900480601f016020809104026020016040519081016040528092919081815260200182805460018160011615610100020316600290048015611aec5780601f10611ac157610100808354040283529160200191611aec565b820191906000526020600020905b815481529060010190602001808311611acf57829003601f168201915b5050505050908060030154908060040160009054906101000a900460ff16905085565b6000600980549050905090565b60606040519081016040528083815260200182815260200160008152506000803373ffffffffffffffffffffffffffffffffffffffff1673ffffffffffffffffffffffffffffffffffffffff1681526020019081526020016000206000820151816000019080519060200190611b939291906122fb565b506020820151816001019080519060200190611bb09291906122fb565b50604082015181600201559050505050565b6060600560008373ffffffffffffffffffffffffffffffffffffffff1673ffffffffffffffffffffffffffffffffffffffff168152602001908152602001600020805480602002602001604051908101604052809291908181526020018280548015611c4d57602002820191906000526020600020905b815481526020019060010190808311611c39575b50505050509050919050565b6009819080600181540180825580915050906001820390600052602060002001600090919290919091509080519060200190611c9692919061237b565b5050600980549050600a826040518082805190602001908083835b602083101515611cd65780518252602082019150602081019050602083039250611cb1565b6001836020036101000a03801982511681845116808217855250505050505090500191505090815260200160405180910390208190555050565b6004805490508111158015611d255750600081115b1515611d3057600080fd5b6000600460018303815481101515611d4457fe5b906000526020600020906005020160000160009054906101000a900473ffffffffffffffffffffffffffffffffffffffff169050346000808373ffffffffffffffffffffffffffffffffffffffff1673ffffffffffffffffffffffffffffffffffffffff168152602001908152602001600020600201600082825401925050819055506000600160003373ffffffffffffffffffffffffffffffffffffffff1673ffffffffffffffffffffffffffffffffffffffff16815260200190815260200160002060008373ffffffffffffffffffffffffffffffffffffffff1673ffffffffffffffffffffffffffffffffffffffff1681526020019081526020016000205490506000811415612028576001600260003373ffffffffffffffffffffffffffffffffffffffff1673ffffffffffffffffffffffffffffffffffffffff1681526020019081526020016000208054905001600160003373ffffffffffffffffffffffffffffffffffffffff1673ffffffffffffffffffffffffffffffffffffffff16815260200190815260200160002060008473ffffffffffffffffffffffffffffffffffffffff1673ffffffffffffffffffffffffffffffffffffffff16815260200190815260200160002081905550600260003373ffffffffffffffffffffffffffffffffffffffff1673ffffffffffffffffffffffffffffffffffffffff1681526020019081526020016000208290806001815401808255809150509060018203906000526020600020016000909192909190916101000a81548173ffffffffffffffffffffffffffffffffffffffff021916908373ffffffffffffffffffffffffffffffffffffffff16021790555050600360003373ffffffffffffffffffffffffffffffffffffffff1673ffffffffffffffffffffffffffffffffffffffff1681526020019081526020016000203490806001815401808255809150509060018203906000526020600020016000909192909190915055506120e8565b6000600360003373ffffffffffffffffffffffffffffffffffffffff1673ffffffffffffffffffffffffffffffffffffffff1681526020019081526020016000206001830381548110151561207957fe5b90600052602060002001549050348101600360003373ffffffffffffffffffffffffffffffffffffffff1673ffffffffffffffffffffffffffffffffffffffff168152602001908152602001600020600184038154811015156120d857fe5b9060005260206000200181905550505b505050565b60608060008060008573ffffffffffffffffffffffffffffffffffffffff1673ffffffffffffffffffffffffffffffffffffffff1681526020019081526020016000206000016000808673ffffffffffffffffffffffffffffffffffffffff1673ffffffffffffffffffffffffffffffffffffffff1681526020019081526020016000206001016000808773ffffffffffffffffffffffffffffffffffffffff1673ffffffffffffffffffffffffffffffffffffffff16815260200190815260200160002060020154828054600181600116156101000203166002900480601f01602080910402602001604051908101604052809291908181526020018280546001816001161561010002031660029004801561224b5780601f106122205761010080835404028352916020019161224b565b820191906000526020600020905b81548152906001019060200180831161222e57829003601f168201915b50505050509250818054600181600116156101000203166002900480601f0160208091040260200160405190810160405280929190818152602001828054600181600116156101000203166002900480156122e75780601f106122bc576101008083540402835291602001916122e7565b820191906000526020600020905b8154815290600101906020018083116122ca57829003601f168201915b505050505091509250925092509193909250565b828054600181600116156101000203166002900490600052602060002090601f016020900481019282601f1061233c57805160ff191683800117855561236a565b8280016001018555821561236a579182015b8281111561236957825182559160200191906001019061234e565b5b50905061237791906123fb565b5090565b828054600181600116156101000203166002900490600052602060002090601f016020900481019282601f106123bc57805160ff19168380011785556123ea565b828001600101855582156123ea579182015b828111156123e95782518255916020019190600101906123ce565b5b5090506123f791906123fb565b5090565b61241d91905b80821115612419576000816000905550600101612401565b5090565b9056fea165627a7a72305820d4fe4660ace897426383b9c07c8390568706b1f2df735b4569032ef3f9e873470029",
  "source": "pragma solidity ^0.5.0;\n\ncontract Toasts {\n\n  struct UserData {\n    string name;\n    string discription;\n    uint balance;\n  }\n\n  struct Comment {\n    address author;\n    string article_url;\n    string comment;\n    uint staked;\n    bool is_good;\n  }\n\n  mapping(address => UserData) usersData;\n\n  mapping(address => mapping(address => uint)) addressToStakeIndex;\n  mapping(address => address[]) stake_for;\n  mapping(address => uint[]) stake_amount;\n\n\n  Comment[] public comments;\n  mapping( address => uint[]) addressToComments;\n\n  mapping( string => uint[] ) articleToComments;\n  mapping( string => uint ) articleStaked;\n\n  mapping( string => uint[]) tagToComments;\n  string[] tags;\n  mapping( string => uint ) tagToTagid;\n\n  function signUp(string memory _name,string memory _discription) public {\n    usersData[msg.sender] = UserData(_name,_discription,0);\n  }\n\n  function sendEther(uint commentid) public payable {\n\n    require(commentid <= comments.length && commentid > 0);\n    address to = comments[commentid-1].author;\n    usersData[to].balance += msg.value;\n    uint index = addressToStakeIndex[msg.sender][to];\n    if (index==0){\n      addressToStakeIndex[msg.sender][to] = stake_for[msg.sender].length+1;\n      stake_for[msg.sender].push(to);\n      stake_amount[msg.sender].push(msg.value);\n    } else{\n      uint val = stake_amount[msg.sender][index-1];\n      stake_amount[msg.sender][index-1] = val + msg.value;\n    }\n\n  }\n\n  function toastComment(string memory url,string memory comment,bool isgood,uint[] memory tagsId) public returns(uint) {\n    comments.push(Comment(msg.sender,url,comment,0,isgood));\n    addressToComments[msg.sender].push(comments.length);\n    for( uint i = 0; i < tagsId.length; i++ ){\n      if (tagsId[i]<=tags.length && tagsId[i] != 0){\n        tagToComments[tags[tagsId[i]-1]].push(comments.length);\n      }\n    }\n    return comments.length;\n  }\n\n  function addTag(string memory tag) public {\n    tags.push(tag);\n    tagToTagid[tag] = tags.length;\n  }\n\n  function withdraw() public {\n    uint balance = usersData[msg.sender].balance;\n    require (balance > 0,\"your balance is not enough\");\n    usersData[msg.sender].balance = 0;\n    msg.sender.transfer(balance);\n  }\n\n  function getUserData(address user) public view returns (string memory,string memory,uint) {\n    return (usersData[user].name,usersData[user].discription,usersData[user].balance);\n  }\n\n  function getStakes(address user) public view returns (address[] memory,uint[] memory) {\n    return (stake_for[user],stake_amount[user]);\n  }\n\n  function getStakeIndex(address user) public view returns (uint) {\n    return (addressToStakeIndex[msg.sender][user]);\n  }\n\n  function getComment(uint commentid) public view returns (address,string memory,string memory,uint,bool) {\n    uint index = commentid - 1;\n    return (comments[index].author,comments[index].article_url,comments[index].comment,\n            comments[index].staked,comments[index].is_good);\n  }\n\n  function getUsersCommentsIndex(address user) public view returns (uint[] memory) {\n    return addressToComments[user];\n  }\n\n  function getCommentsFromTag(string memory tag) public view returns (uint[] memory) {\n    return tagToComments[tag];\n  }\n\n  function getTagCount() public view returns (uint){\n    return tags.length;\n  }\n\n  function getTag(uint tagid) public view returns (string memory){\n    return tags[tagid];\n  }\n\n  function getArtcileInfo(string memory url) public view returns (uint[] memory,uint){\n    return (articleToComments[url],articleStaked[url]);\n  }\n\n\n}\n",
  "sourcePath": "/Users/kajiwarawataruju/Develop/toast/truffle/contracts/Toasts.sol",
  "compiler": {
    "name": "solc",
    "version": "0.5.0+commit.1d4f565a.Emscripten.clang"
  },
  "schemaVersion": "3.0.1",
  "updatedAt": "2019-11-14T09:31:10.733Z",
  "devdoc": {
    "methods": {}
  },
  "userdoc": {
    "methods": {}
  }
}