{
  "contractName": "Toasts",
  "abi": [
    {
      "constant": true,
      "inputs": [
        {
          "name": "",
          "type": "uint256"
        }
      ],
      "name": "comments",
      "outputs": [
        {
          "name": "author",
          "type": "address"
        },
        {
          "name": "article_url",
          "type": "string"
        },
        {
          "name": "comment",
          "type": "string"
        },
        {
          "name": "staked",
          "type": "uint256"
        },
        {
          "name": "is_good",
          "type": "bool"
        }
      ],
      "payable": false,
      "stateMutability": "view",
      "type": "function",
      "signature": "0x8ebb4c15"
    },
    {
      "constant": false,
      "inputs": [
        {
          "name": "_name",
          "type": "string"
        },
        {
          "name": "_discription",
          "type": "string"
        }
      ],
      "name": "signUp",
      "outputs": [],
      "payable": false,
      "stateMutability": "nonpayable",
      "type": "function",
      "signature": "0xa469a332"
    },
    {
      "constant": false,
      "inputs": [
        {
          "name": "commentid",
          "type": "uint256"
        }
      ],
      "name": "sendEther",
      "outputs": [],
      "payable": true,
      "stateMutability": "payable",
      "type": "function",
      "signature": "0xf88d331a"
    },
    {
      "constant": false,
      "inputs": [
        {
          "name": "url",
          "type": "string"
        },
        {
          "name": "comment",
          "type": "string"
        },
        {
          "name": "isgood",
          "type": "bool"
        },
        {
          "name": "tagsId",
          "type": "uint256[]"
        }
      ],
      "name": "toastComment",
      "outputs": [
        {
          "name": "",
          "type": "uint256"
        }
      ],
      "payable": false,
      "stateMutability": "nonpayable",
      "type": "function",
      "signature": "0x8e950085"
    },
    {
      "constant": false,
      "inputs": [
        {
          "name": "tag",
          "type": "string"
        }
      ],
      "name": "addTag",
      "outputs": [],
      "payable": false,
      "stateMutability": "nonpayable",
      "type": "function",
      "signature": "0xde0cc45b"
    },
    {
      "constant": false,
      "inputs": [],
      "name": "withdraw",
      "outputs": [],
      "payable": false,
      "stateMutability": "nonpayable",
      "type": "function",
      "signature": "0x3ccfd60b"
    },
    {
      "constant": true,
      "inputs": [
        {
          "name": "user",
          "type": "address"
        }
      ],
      "name": "getUserData",
      "outputs": [
        {
          "name": "",
          "type": "string"
        },
        {
          "name": "",
          "type": "string"
        },
        {
          "name": "",
          "type": "uint256"
        }
      ],
      "payable": false,
      "stateMutability": "view",
      "type": "function",
      "signature": "0xffc9896b"
    },
    {
      "constant": true,
      "inputs": [
        {
          "name": "user",
          "type": "address"
        }
      ],
      "name": "getStakes",
      "outputs": [
        {
          "name": "",
          "type": "address[]"
        },
        {
          "name": "",
          "type": "uint256[]"
        }
      ],
      "payable": false,
      "stateMutability": "view",
      "type": "function",
      "signature": "0x7ba6f458"
    },
    {
      "constant": true,
      "inputs": [
        {
          "name": "user",
          "type": "address"
        }
      ],
      "name": "getStakeIndex",
      "outputs": [
        {
          "name": "",
          "type": "uint256"
        }
      ],
      "payable": false,
      "stateMutability": "view",
      "type": "function",
      "signature": "0x4ea4e6b8"
    },
    {
      "constant": true,
      "inputs": [
        {
          "name": "commentid",
          "type": "uint256"
        }
      ],
      "name": "getComment",
      "outputs": [
        {
          "name": "",
          "type": "address"
        },
        {
          "name": "",
          "type": "string"
        },
        {
          "name": "",
          "type": "string"
        },
        {
          "name": "",
          "type": "uint256"
        },
        {
          "name": "",
          "type": "bool"
        }
      ],
      "payable": false,
      "stateMutability": "view",
      "type": "function",
      "signature": "0x0800e300"
    },
    {
      "constant": true,
      "inputs": [
        {
          "name": "user",
          "type": "address"
        }
      ],
      "name": "getUsersCommentsIndex",
      "outputs": [
        {
          "name": "",
          "type": "uint256[]"
        }
      ],
      "payable": false,
      "stateMutability": "view",
      "type": "function",
      "signature": "0xb9fd4fc8"
    },
    {
      "constant": true,
      "inputs": [
        {
          "name": "tag",
          "type": "string"
        }
      ],
      "name": "getCommentsFromTag",
      "outputs": [
        {
          "name": "",
          "type": "uint256[]"
        }
      ],
      "payable": false,
      "stateMutability": "view",
      "type": "function",
      "signature": "0x011874c5"
    },
    {
      "constant": true,
      "inputs": [],
      "name": "getTagCount",
      "outputs": [
        {
          "name": "",
          "type": "uint256"
        }
      ],
      "payable": false,
      "stateMutability": "view",
      "type": "function",
      "signature": "0x986f191c"
    },
    {
      "constant": true,
      "inputs": [
        {
          "name": "tagid",
          "type": "uint256"
        }
      ],
      "name": "getTag",
      "outputs": [
        {
          "name": "",
          "type": "string"
        }
      ],
      "payable": false,
      "stateMutability": "view",
      "type": "function",
      "signature": "0x691bbb69"
    }
  ],
  "bytecode": "0x608060405234801561001057600080fd5b506121e7806100206000396000f3fe6080604052600436106100d0576000357c0100000000000000000000000000000000000000000000000000000000900463ffffffff168063011874c5146100d55780630800e300146101f25780633ccfd60b146103575780634ea4e6b81461036e578063691bbb69146103d35780637ba6f458146104875780638e950085146105755780638ebb4c1514610788578063986f191c146108ed578063a469a33214610918578063b9fd4fc814610a77578063de0cc45b14610b1d578063f88d331a14610be5578063ffc9896b14610c13575b600080fd5b3480156100e157600080fd5b5061019b600480360360208110156100f857600080fd5b810190808035906020019064010000000081111561011557600080fd5b82018360208201111561012757600080fd5b8035906020019184600183028401116401000000008311171561014957600080fd5b91908080601f016020809104026020016040519081016040528093929190818152602001838380828437600081840152601f19601f820116905080830192505050505050509192919290505050610d50565b6040518080602001828103825283818151815260200191508051906020019060200280838360005b838110156101de5780820151818401526020810190506101c3565b505050509050019250505060405180910390f35b3480156101fe57600080fd5b5061022b6004803603602081101561021557600080fd5b8101908080359060200190929190505050610e13565b604051808673ffffffffffffffffffffffffffffffffffffffff1673ffffffffffffffffffffffffffffffffffffffff168152602001806020018060200185815260200184151515158152602001838103835287818151815260200191508051906020019080838360005b838110156102b1578082015181840152602081019050610296565b50505050905090810190601f1680156102de5780820380516001836020036101000a031916815260200191505b50838103825286818151815260200191508051906020019080838360005b838110156103175780820151818401526020810190506102fc565b50505050905090810190601f1680156103445780820380516001836020036101000a031916815260200191505b5097505050505050505060405180910390f35b34801561036357600080fd5b5061036c61103f565b005b34801561037a57600080fd5b506103bd6004803603602081101561039157600080fd5b81019080803573ffffffffffffffffffffffffffffffffffffffff16906020019092919050505061118e565b6040518082815260200191505060405180910390f35b3480156103df57600080fd5b5061040c600480360360208110156103f657600080fd5b8101908080359060200190929190505050611214565b6040518080602001828103825283818151815260200191508051906020019080838360005b8381101561044c578082015181840152602081019050610431565b50505050905090810190601f1680156104795780820380516001836020036101000a031916815260200191505b509250505060405180910390f35b34801561049357600080fd5b506104d6600480360360208110156104aa57600080fd5b81019080803573ffffffffffffffffffffffffffffffffffffffff1690602001909291905050506112cf565b604051808060200180602001838103835285818151815260200191508051906020019060200280838360005b8381101561051d578082015181840152602081019050610502565b50505050905001838103825284818151815260200191508051906020019060200280838360005b8381101561055f578082015181840152602081019050610544565b5050505090500194505050505060405180910390f35b34801561058157600080fd5b506107726004803603608081101561059857600080fd5b81019080803590602001906401000000008111156105b557600080fd5b8201836020820111156105c757600080fd5b803590602001918460018302840111640100000000831117156105e957600080fd5b91908080601f016020809104026020016040519081016040528093929190818152602001838380828437600081840152601f19601f8201169050808301925050505050505091929192908035906020019064010000000081111561064c57600080fd5b82018360208201111561065e57600080fd5b8035906020019184600183028401116401000000008311171561068057600080fd5b91908080601f016020809104026020016040519081016040528093929190818152602001838380828437600081840152601f19601f820116905080830192505050505050509192919290803515159060200190929190803590602001906401000000008111156106ef57600080fd5b82018360208201111561070157600080fd5b8035906020019184602083028401116401000000008311171561072357600080fd5b919080806020026020016040519081016040528093929190818152602001838360200280828437600081840152601f19601f820116905080830192505050505050509192919290505050611433565b6040518082815260200191505060405180910390f35b34801561079457600080fd5b506107c1600480360360208110156107ab57600080fd5b8101908080359060200190929190505050611708565b604051808673ffffffffffffffffffffffffffffffffffffffff1673ffffffffffffffffffffffffffffffffffffffff168152602001806020018060200185815260200184151515158152602001838103835287818151815260200191508051906020019080838360005b8381101561084757808201518184015260208101905061082c565b50505050905090810190601f1680156108745780820380516001836020036101000a031916815260200191505b50838103825286818151815260200191508051906020019080838360005b838110156108ad578082015181840152602081019050610892565b50505050905090810190601f1680156108da5780820380516001836020036101000a031916815260200191505b5097505050505050505060405180910390f35b3480156108f957600080fd5b506109026118aa565b6040518082815260200191505060405180910390f35b34801561092457600080fd5b50610a756004803603604081101561093b57600080fd5b810190808035906020019064010000000081111561095857600080fd5b82018360208201111561096a57600080fd5b8035906020019184600183028401116401000000008311171561098c57600080fd5b91908080601f016020809104026020016040519081016040528093929190818152602001838380828437600081840152601f19601f820116905080830192505050505050509192919290803590602001906401000000008111156109ef57600080fd5b820183602082011115610a0157600080fd5b80359060200191846001830284011164010000000083111715610a2357600080fd5b91908080601f016020809104026020016040519081016040528093929190818152602001838380828437600081840152601f19601f8201169050808301925050505050505091929192905050506118b7565b005b348015610a8357600080fd5b50610ac660048036036020811015610a9a57600080fd5b81019080803573ffffffffffffffffffffffffffffffffffffffff16906020019092919050505061195d565b6040518080602001828103825283818151815260200191508051906020019060200280838360005b83811015610b09578082015181840152602081019050610aee565b505050509050019250505060405180910390f35b348015610b2957600080fd5b50610be360048036036020811015610b4057600080fd5b8101908080359060200190640100000000811115610b5d57600080fd5b820183602082011115610b6f57600080fd5b80359060200191846001830284011164010000000083111715610b9157600080fd5b91908080601f016020809104026020016040519081016040528093929190818152602001838380828437600081840152601f19601f8201169050808301925050505050505091929192905050506119f4565b005b610c1160048036036020811015610bfb57600080fd5b8101908080359060200190929190505050611aab565b005b348015610c1f57600080fd5b50610c6260048036036020811015610c3657600080fd5b81019080803573ffffffffffffffffffffffffffffffffffffffff169060200190929190505050611e88565b604051808060200180602001848152602001838103835286818151815260200191508051906020019080838360005b83811015610cac578082015181840152602081019050610c91565b50505050905090810190601f168015610cd95780820380516001836020036101000a031916815260200191505b50838103825285818151815260200191508051906020019080838360005b83811015610d12578082015181840152602081019050610cf7565b50505050905090810190601f168015610d3f5780820380516001836020036101000a031916815260200191505b509550505050505060405180910390f35b60606006826040518082805190602001908083835b602083101515610d8a5780518252602082019150602081019050602083039250610d65565b6001836020036101000a0380198251168184511680821785525050505050509050019150509081526020016040518091039020805480602002602001604051908101604052809291908181526020018280548015610e0757602002820191906000526020600020905b815481526020019060010190808311610df3575b50505050509050919050565b60006060806000806000600187039050600481815481101515610e3257fe5b906000526020600020906005020160000160009054906101000a900473ffffffffffffffffffffffffffffffffffffffff16600482815481101515610e7357fe5b9060005260206000209060050201600101600483815481101515610e9357fe5b9060005260206000209060050201600201600484815481101515610eb357fe5b906000526020600020906005020160030154600485815481101515610ed457fe5b906000526020600020906005020160040160009054906101000a900460ff16838054600181600116156101000203166002900480601f016020809104026020016040519081016040528092919081815260200182805460018160011615610100020316600290048015610f885780601f10610f5d57610100808354040283529160200191610f88565b820191906000526020600020905b815481529060010190602001808311610f6b57829003601f168201915b50505050509350828054600181600116156101000203166002900480601f0160208091040260200160405190810160405280929190818152602001828054600181600116156101000203166002900480156110245780601f10610ff957610100808354040283529160200191611024565b820191906000526020600020905b81548152906001019060200180831161100757829003601f168201915b50505050509250955095509550955095505091939590929450565b60008060003373ffffffffffffffffffffffffffffffffffffffff1673ffffffffffffffffffffffffffffffffffffffff1681526020019081526020016000206002015490506000811115156110fd576040517f08c379a000000000000000000000000000000000000000000000000000000000815260040180806020018281038252601a8152602001807f796f75722062616c616e6365206973206e6f7420656e6f75676800000000000081525060200191505060405180910390fd5b60008060003373ffffffffffffffffffffffffffffffffffffffff1673ffffffffffffffffffffffffffffffffffffffff168152602001908152602001600020600201819055503373ffffffffffffffffffffffffffffffffffffffff166108fc829081150290604051600060405180830381858888f1935050505015801561118a573d6000803e3d6000fd5b5050565b6000600160003373ffffffffffffffffffffffffffffffffffffffff1673ffffffffffffffffffffffffffffffffffffffff16815260200190815260200160002060008373ffffffffffffffffffffffffffffffffffffffff1673ffffffffffffffffffffffffffffffffffffffff168152602001908152602001600020549050919050565b606060078281548110151561122557fe5b906000526020600020018054600181600116156101000203166002900480601f0160208091040260200160405190810160405280929190818152602001828054600181600116156101000203166002900480156112c35780601f10611298576101008083540402835291602001916112c3565b820191906000526020600020905b8154815290600101906020018083116112a657829003601f168201915b50505050509050919050565b606080600260008473ffffffffffffffffffffffffffffffffffffffff1673ffffffffffffffffffffffffffffffffffffffff168152602001908152602001600020600360008573ffffffffffffffffffffffffffffffffffffffff1673ffffffffffffffffffffffffffffffffffffffff168152602001908152602001600020818054806020026020016040519081016040528092919081815260200182805480156113d157602002820191906000526020600020905b8160009054906101000a900473ffffffffffffffffffffffffffffffffffffffff1673ffffffffffffffffffffffffffffffffffffffff1681526020019060010190808311611387575b505050505091508080548060200260200160405190810160405280929190818152602001828054801561142357602002820191906000526020600020905b81548152602001906001019080831161140f575b5050505050905091509150915091565b6000600460a0604051908101604052803373ffffffffffffffffffffffffffffffffffffffff168152602001878152602001868152602001600081526020018515158152509080600181540180825580915050906001820390600052602060002090600502016000909192909190915060008201518160000160006101000a81548173ffffffffffffffffffffffffffffffffffffffff021916908373ffffffffffffffffffffffffffffffffffffffff1602179055506020820151816001019080519060200190611506929190612096565b506040820151816002019080519060200190611523929190612096565b506060820151816003015560808201518160040160006101000a81548160ff021916908315150217905550505050600560003373ffffffffffffffffffffffffffffffffffffffff1673ffffffffffffffffffffffffffffffffffffffff168152602001908152602001600020600480549050908060018154018082558091505090600182039060005260206000200160009091929091909150555060008090505b82518110156116f75760078054905083828151811015156115e257fe5b906020019060200201511115801561161257506000838281518110151561160557fe5b9060200190602002015114155b156116ea57600660076001858481518110151561162b57fe5b906020019060200201510381548110151561164257fe5b9060005260206000200160405180828054600181600116156101000203166002900480156116a75780601f106116855761010080835404028352918201916116a7565b820191906000526020600020905b815481529060010190602001808311611693575b5050915050908152602001604051809103902060048054905090806001815401808255809150509060018203906000526020600020016000909192909190915055505b80806001019150506115c5565b506004805490509050949350505050565b60048181548110151561171757fe5b90600052602060002090600502016000915090508060000160009054906101000a900473ffffffffffffffffffffffffffffffffffffffff1690806001018054600181600116156101000203166002900480601f0160208091040260200160405190810160405280929190818152602001828054600181600116156101000203166002900480156117e95780601f106117be576101008083540402835291602001916117e9565b820191906000526020600020905b8154815290600101906020018083116117cc57829003601f168201915b505050505090806002018054600181600116156101000203166002900480601f0160208091040260200160405190810160405280929190818152602001828054600181600116156101000203166002900480156118875780601f1061185c57610100808354040283529160200191611887565b820191906000526020600020905b81548152906001019060200180831161186a57829003601f168201915b5050505050908060030154908060040160009054906101000a900460ff16905085565b6000600780549050905090565b60606040519081016040528083815260200182815260200160008152506000803373ffffffffffffffffffffffffffffffffffffffff1673ffffffffffffffffffffffffffffffffffffffff168152602001908152602001600020600082015181600001908051906020019061192e929190612096565b50602082015181600101908051906020019061194b929190612096565b50604082015181600201559050505050565b6060600560008373ffffffffffffffffffffffffffffffffffffffff1673ffffffffffffffffffffffffffffffffffffffff1681526020019081526020016000208054806020026020016040519081016040528092919081815260200182805480156119e857602002820191906000526020600020905b8154815260200190600101908083116119d4575b50505050509050919050565b6007819080600181540180825580915050906001820390600052602060002001600090919290919091509080519060200190611a31929190612116565b50506007805490506008826040518082805190602001908083835b602083101515611a715780518252602082019150602081019050602083039250611a4c565b6001836020036101000a03801982511681845116808217855250505050505090500191505090815260200160405180910390208190555050565b6004805490508111158015611ac05750600081115b1515611acb57600080fd5b6000600460018303815481101515611adf57fe5b906000526020600020906005020160000160009054906101000a900473ffffffffffffffffffffffffffffffffffffffff169050346000808373ffffffffffffffffffffffffffffffffffffffff1673ffffffffffffffffffffffffffffffffffffffff168152602001908152602001600020600201600082825401925050819055506000600160003373ffffffffffffffffffffffffffffffffffffffff1673ffffffffffffffffffffffffffffffffffffffff16815260200190815260200160002060008373ffffffffffffffffffffffffffffffffffffffff1673ffffffffffffffffffffffffffffffffffffffff1681526020019081526020016000205490506000811415611dc3576001600260003373ffffffffffffffffffffffffffffffffffffffff1673ffffffffffffffffffffffffffffffffffffffff1681526020019081526020016000208054905001600160003373ffffffffffffffffffffffffffffffffffffffff1673ffffffffffffffffffffffffffffffffffffffff16815260200190815260200160002060008473ffffffffffffffffffffffffffffffffffffffff1673ffffffffffffffffffffffffffffffffffffffff16815260200190815260200160002081905550600260003373ffffffffffffffffffffffffffffffffffffffff1673ffffffffffffffffffffffffffffffffffffffff1681526020019081526020016000208290806001815401808255809150509060018203906000526020600020016000909192909190916101000a81548173ffffffffffffffffffffffffffffffffffffffff021916908373ffffffffffffffffffffffffffffffffffffffff16021790555050600360003373ffffffffffffffffffffffffffffffffffffffff1673ffffffffffffffffffffffffffffffffffffffff168152602001908152602001600020349080600181540180825580915050906001820390600052602060002001600090919290919091505550611e83565b6000600360003373ffffffffffffffffffffffffffffffffffffffff1673ffffffffffffffffffffffffffffffffffffffff16815260200190815260200160002060018303815481101515611e1457fe5b90600052602060002001549050348101600360003373ffffffffffffffffffffffffffffffffffffffff1673ffffffffffffffffffffffffffffffffffffffff16815260200190815260200160002060018403815481101515611e7357fe5b9060005260206000200181905550505b505050565b60608060008060008573ffffffffffffffffffffffffffffffffffffffff1673ffffffffffffffffffffffffffffffffffffffff1681526020019081526020016000206000016000808673ffffffffffffffffffffffffffffffffffffffff1673ffffffffffffffffffffffffffffffffffffffff1681526020019081526020016000206001016000808773ffffffffffffffffffffffffffffffffffffffff1673ffffffffffffffffffffffffffffffffffffffff16815260200190815260200160002060020154828054600181600116156101000203166002900480601f016020809104026020016040519081016040528092919081815260200182805460018160011615610100020316600290048015611fe65780601f10611fbb57610100808354040283529160200191611fe6565b820191906000526020600020905b815481529060010190602001808311611fc957829003601f168201915b50505050509250818054600181600116156101000203166002900480601f0160208091040260200160405190810160405280929190818152602001828054600181600116156101000203166002900480156120825780601f1061205757610100808354040283529160200191612082565b820191906000526020600020905b81548152906001019060200180831161206557829003601f168201915b505050505091509250925092509193909250565b828054600181600116156101000203166002900490600052602060002090601f016020900481019282601f106120d757805160ff1916838001178555612105565b82800160010185558215612105579182015b828111156121045782518255916020019190600101906120e9565b5b5090506121129190612196565b5090565b828054600181600116156101000203166002900490600052602060002090601f016020900481019282601f1061215757805160ff1916838001178555612185565b82800160010185558215612185579182015b82811115612184578251825591602001919060010190612169565b5b5090506121929190612196565b5090565b6121b891905b808211156121b457600081600090555060010161219c565b5090565b9056fea165627a7a72305820042808a09b6d371f2727a16d00ba900cf01047288fdc1f977d1396d6ff9c1f7d0029",
  "source": "pragma solidity ^0.5.0;\n\ncontract Toasts {\n\n  struct UserData {\n    string name;\n    string discription;\n    uint balance;\n  }\n\n  struct Comment {\n    address author;\n    string article_url;\n    string comment;\n    uint staked;\n    bool is_good;\n  }\n\n  mapping(address => UserData) usersData;\n\n  mapping(address => mapping(address => uint)) addressToStakeIndex;\n  mapping(address => address[]) stake_for;\n  mapping(address => uint[]) stake_amount;\n\n\n  Comment[] public comments;\n  mapping( address => uint[]) addressToComments;\n\n  mapping( string => uint[]) tagToComments;\n  string[] tags;\n  mapping( string => uint ) tagToTagid;\n\n  function signUp(string memory _name,string memory _discription) public {\n    usersData[msg.sender] = UserData(_name,_discription,0);\n  }\n\n  function sendEther(uint commentid) public payable {\n\n    require(commentid <= comments.length && commentid > 0);\n    address to = comments[commentid-1].author;\n    usersData[to].balance += msg.value;\n    uint index = addressToStakeIndex[msg.sender][to];\n    if (index==0){\n      addressToStakeIndex[msg.sender][to] = stake_for[msg.sender].length+1;\n      stake_for[msg.sender].push(to);\n      stake_amount[msg.sender].push(msg.value);\n    } else{\n      uint val = stake_amount[msg.sender][index-1];\n      stake_amount[msg.sender][index-1] = val + msg.value;\n    }\n\n  }\n\n  function toastComment(string memory url,string memory comment,bool isgood,uint[] memory tagsId) public returns(uint) {\n    comments.push(Comment(msg.sender,url,comment,0,isgood));\n    addressToComments[msg.sender].push(comments.length);\n    for( uint i = 0; i < tagsId.length; i++ ){\n      if (tagsId[i]<=tags.length && tagsId[i] != 0){\n        tagToComments[tags[tagsId[i]-1]].push(comments.length);\n      }\n    }\n    return comments.length;\n  }\n\n  function addTag(string memory tag) public {\n    tags.push(tag);\n    tagToTagid[tag] = tags.length;\n  }\n\n  function withdraw() public {\n    uint balance = usersData[msg.sender].balance;\n    require (balance > 0,\"your balance is not enough\");\n    usersData[msg.sender].balance = 0;\n    msg.sender.transfer(balance);\n  }\n\n  function getUserData(address user) public view returns (string memory,string memory,uint) {\n    return (usersData[user].name,usersData[user].discription,usersData[user].balance);\n  }\n\n  function getStakes(address user) public view returns (address[] memory,uint[] memory) {\n    return (stake_for[user],stake_amount[user]);\n  }\n\n  function getStakeIndex(address user) public view returns (uint) {\n    return (addressToStakeIndex[msg.sender][user]);\n  }\n\n  function getComment(uint commentid) public view returns (address,string memory,string memory,uint,bool) {\n    uint index = commentid - 1;\n    return (comments[index].author,comments[index].article_url,comments[index].comment,\n            comments[index].staked,comments[index].is_good);\n  }\n\n  function getUsersCommentsIndex(address user) public view returns (uint[] memory) {\n    return addressToComments[user];\n  }\n\n  function getCommentsFromTag(string memory tag) public view returns (uint[] memory) {\n    return tagToComments[tag];\n  }\n\n  function getTagCount() public view returns (uint){\n    return tags.length;\n  }\n\n  function getTag(uint tagid) public view returns (string memory){\n    return tags[tagid];\n  }\n\n\n}\n",
  "sourcePath": "/Users/kajiwarawataruju/Develop/toast/truffle/contracts/Toasts.sol",
  "compiler": {
    "name": "solc",
    "version": "0.5.0+commit.1d4f565a.Emscripten.clang"
  },
  "schemaVersion": "3.0.1",
  "updatedAt": "2019-11-12T16:19:05.956Z",
  "devdoc": {
    "methods": {}
  },
  "userdoc": {
    "methods": {}
  }
}